{
  "_format": "hh-sol-artifact-1",
  "contractName": "Turing",
  "sourceName": "contracts/Turing.sol",
  "abi": [
    {
      "inputs": [],
      "stateMutability": "nonpayable",
      "type": "constructor"
    },
    {
      "inputs": [
        {
          "internalType": "address",
          "name": "spender",
          "type": "address"
        },
        {
          "internalType": "uint256",
          "name": "allowance",
          "type": "uint256"
        },
        {
          "internalType": "uint256",
          "name": "needed",
          "type": "uint256"
        }
      ],
      "name": "ERC20InsufficientAllowance",
      "type": "error"
    },
    {
      "inputs": [
        {
          "internalType": "address",
          "name": "sender",
          "type": "address"
        },
        {
          "internalType": "uint256",
          "name": "balance",
          "type": "uint256"
        },
        {
          "internalType": "uint256",
          "name": "needed",
          "type": "uint256"
        }
      ],
      "name": "ERC20InsufficientBalance",
      "type": "error"
    },
    {
      "inputs": [
        {
          "internalType": "address",
          "name": "approver",
          "type": "address"
        }
      ],
      "name": "ERC20InvalidApprover",
      "type": "error"
    },
    {
      "inputs": [
        {
          "internalType": "address",
          "name": "receiver",
          "type": "address"
        }
      ],
      "name": "ERC20InvalidReceiver",
      "type": "error"
    },
    {
      "inputs": [
        {
          "internalType": "address",
          "name": "sender",
          "type": "address"
        }
      ],
      "name": "ERC20InvalidSender",
      "type": "error"
    },
    {
      "inputs": [
        {
          "internalType": "address",
          "name": "spender",
          "type": "address"
        }
      ],
      "name": "ERC20InvalidSpender",
      "type": "error"
    },
    {
      "anonymous": false,
      "inputs": [
        {
          "indexed": true,
          "internalType": "address",
          "name": "owner",
          "type": "address"
        },
        {
          "indexed": true,
          "internalType": "address",
          "name": "spender",
          "type": "address"
        },
        {
          "indexed": false,
          "internalType": "uint256",
          "name": "value",
          "type": "uint256"
        }
      ],
      "name": "Approval",
      "type": "event"
    },
    {
      "anonymous": false,
      "inputs": [
        {
          "indexed": true,
          "internalType": "address",
          "name": "from",
          "type": "address"
        },
        {
          "indexed": true,
          "internalType": "address",
          "name": "to",
          "type": "address"
        },
        {
          "indexed": false,
          "internalType": "uint256",
          "name": "value",
          "type": "uint256"
        }
      ],
      "name": "Transfer",
      "type": "event"
    },
    {
      "inputs": [
        {
          "internalType": "address",
          "name": "owner",
          "type": "address"
        },
        {
          "internalType": "address",
          "name": "spender",
          "type": "address"
        }
      ],
      "name": "allowance",
      "outputs": [
        {
          "internalType": "uint256",
          "name": "",
          "type": "uint256"
        }
      ],
      "stateMutability": "view",
      "type": "function"
    },
    {
      "inputs": [
        {
          "internalType": "address",
          "name": "spender",
          "type": "address"
        },
        {
          "internalType": "uint256",
          "name": "value",
          "type": "uint256"
        }
      ],
      "name": "approve",
      "outputs": [
        {
          "internalType": "bool",
          "name": "",
          "type": "bool"
        }
      ],
      "stateMutability": "nonpayable",
      "type": "function"
    },
    {
      "inputs": [
        {
          "internalType": "address",
          "name": "account",
          "type": "address"
        }
      ],
      "name": "balanceOf",
      "outputs": [
        {
          "internalType": "uint256",
          "name": "",
          "type": "uint256"
        }
      ],
      "stateMutability": "view",
      "type": "function"
    },
    {
      "inputs": [
        {
          "internalType": "string",
          "name": "",
          "type": "string"
        }
      ],
      "name": "codenameToAddress",
      "outputs": [
        {
          "internalType": "address",
          "name": "",
          "type": "address"
        }
      ],
      "stateMutability": "view",
      "type": "function"
    },
    {
      "inputs": [],
      "name": "decimals",
      "outputs": [
        {
          "internalType": "uint8",
          "name": "",
          "type": "uint8"
        }
      ],
      "stateMutability": "view",
      "type": "function"
    },
    {
      "inputs": [
        {
          "internalType": "string",
          "name": "codinome",
          "type": "string"
        },
        {
          "internalType": "uint256",
          "name": "quantidade",
          "type": "uint256"
        }
      ],
      "name": "issueToken",
      "outputs": [],
      "stateMutability": "nonpayable",
      "type": "function"
    },
    {
      "inputs": [],
      "name": "name",
      "outputs": [
        {
          "internalType": "string",
          "name": "",
          "type": "string"
        }
      ],
      "stateMutability": "view",
      "type": "function"
    },
    {
      "inputs": [],
      "name": "professor",
      "outputs": [
        {
          "internalType": "address",
          "name": "",
          "type": "address"
        }
      ],
      "stateMutability": "view",
      "type": "function"
    },
    {
      "inputs": [],
      "name": "symbol",
      "outputs": [
        {
          "internalType": "string",
          "name": "",
          "type": "string"
        }
      ],
      "stateMutability": "view",
      "type": "function"
    },
    {
      "inputs": [],
      "name": "totalSupply",
      "outputs": [
        {
          "internalType": "uint256",
          "name": "",
          "type": "uint256"
        }
      ],
      "stateMutability": "view",
      "type": "function"
    },
    {
      "inputs": [
        {
          "internalType": "address",
          "name": "to",
          "type": "address"
        },
        {
          "internalType": "uint256",
          "name": "value",
          "type": "uint256"
        }
      ],
      "name": "transfer",
      "outputs": [
        {
          "internalType": "bool",
          "name": "",
          "type": "bool"
        }
      ],
      "stateMutability": "nonpayable",
      "type": "function"
    },
    {
      "inputs": [
        {
          "internalType": "address",
          "name": "from",
          "type": "address"
        },
        {
          "internalType": "address",
          "name": "to",
          "type": "address"
        },
        {
          "internalType": "uint256",
          "name": "value",
          "type": "uint256"
        }
      ],
      "name": "transferFrom",
      "outputs": [
        {
          "internalType": "bool",
          "name": "",
          "type": "bool"
        }
      ],
      "stateMutability": "nonpayable",
      "type": "function"
    },
    {
      "inputs": [
        {
          "internalType": "string",
          "name": "codinome",
          "type": "string"
        },
        {
          "internalType": "uint256",
          "name": "quantidade",
          "type": "uint256"
        }
      ],
      "name": "vote",
      "outputs": [],
      "stateMutability": "nonpayable",
      "type": "function"
    },
    {
      "inputs": [],
      "name": "votingOff",
      "outputs": [],
      "stateMutability": "nonpayable",
      "type": "function"
    },
    {
      "inputs": [],
      "name": "votingOn",
      "outputs": [],
      "stateMutability": "nonpayable",
      "type": "function"
    }
  ],
  "bytecode": "0x608060405234801561001057600080fd5b506040518060400160405280600c81526020017f547572696e6720546f6b656e00000000000000000000000000000000000000008152506040518060400160405280600381526020017f5455520000000000000000000000000000000000000000000000000000000000815250816003908161008c9190610eda565b50806004908161009c9190610eda565b50505073f39fd6e51aad88f6f4ce6ab8827279cfffb92266600660006101000a81548173ffffffffffffffffffffffffffffffffffffffff021916908373ffffffffffffffffffffffffffffffffffffffff16021790555073ab242176a86e089707ca5d8517cc87e426160c26600560006101000a81548173ffffffffffffffffffffffffffffffffffffffff021916908373ffffffffffffffffffffffffffffffffffffffff1602179055506001600660146101000a81548160ff02191690831515021790555060006040518061026001604052806040518060400160405280600581526020017f6e6f6d653100000000000000000000000000000000000000000000000000000081525081526020016040518060400160405280600581526020017f6e6f6d653200000000000000000000000000000000000000000000000000000081525081526020016040518060400160405280600581526020017f6e6f6d653300000000000000000000000000000000000000000000000000000081525081526020016040518060400160405280600581526020017f6e6f6d653400000000000000000000000000000000000000000000000000000081525081526020016040518060400160405280600581526020017f6e6f6d653500000000000000000000000000000000000000000000000000000081525081526020016040518060400160405280600581526020017f6e6f6d653600000000000000000000000000000000000000000000000000000081525081526020016040518060400160405280600581526020017f6e6f6d653700000000000000000000000000000000000000000000000000000081525081526020016040518060400160405280600581526020017f6e6f6d653800000000000000000000000000000000000000000000000000000081525081526020016040518060400160405280600581526020017f6e6f6d653900000000000000000000000000000000000000000000000000000081525081526020016040518060400160405280600681526020017f6e6f6d653130000000000000000000000000000000000000000000000000000081525081526020016040518060400160405280600681526020017f6e6f6d653131000000000000000000000000000000000000000000000000000081525081526020016040518060400160405280600681526020017f6e6f6d653132000000000000000000000000000000000000000000000000000081525081526020016040518060400160405280600681526020017f6e6f6d653133000000000000000000000000000000000000000000000000000081525081526020016040518060400160405280600681526020017f6e6f6d653134000000000000000000000000000000000000000000000000000081525081526020016040518060400160405280600681526020017f6e6f6d653135000000000000000000000000000000000000000000000000000081525081526020016040518060400160405280600681526020017f6e6f6d653136000000000000000000000000000000000000000000000000000081525081526020016040518060400160405280600681526020017f6e6f6d653137000000000000000000000000000000000000000000000000000081525081526020016040518060400160405280600681526020017f6e6f6d653138000000000000000000000000000000000000000000000000000081525081526020016040518060400160405280600681526020017f6e6f6d6531390000000000000000000000000000000000000000000000000000815250815250905060006040518061026001604052807370997970c51812dc3a010c7d01b50e0d17dc79c873ffffffffffffffffffffffffffffffffffffffff1673ffffffffffffffffffffffffffffffffffffffff168152602001733c44cdddb6a900fa2b585dd299e03d12fa4293bc73ffffffffffffffffffffffffffffffffffffffff1673ffffffffffffffffffffffffffffffffffffffff1681526020017390f79bf6eb2c4f870365e785982e1f101e93b90673ffffffffffffffffffffffffffffffffffffffff1673ffffffffffffffffffffffffffffffffffffffff1681526020017315d34aaf54267db7d7c367839aaf71a00a2c6a6573ffffffffffffffffffffffffffffffffffffffff1673ffffffffffffffffffffffffffffffffffffffff168152602001739965507d1a55bcc2695c58ba16fb37d819b0a4dc73ffffffffffffffffffffffffffffffffffffffff1673ffffffffffffffffffffffffffffffffffffffff16815260200173976ea74026e726554db657fa54763abd0c3a0aa973ffffffffffffffffffffffffffffffffffffffff1673ffffffffffffffffffffffffffffffffffffffff1681526020017314dc79964da2c08b23698b3d3cc7ca32193d995573ffffffffffffffffffffffffffffffffffffffff1673ffffffffffffffffffffffffffffffffffffffff1681526020017323618e81e3f5cdf7f54c3d65f7fbc0abf5b21e8f73ffffffffffffffffffffffffffffffffffffffff1673ffffffffffffffffffffffffffffffffffffffff16815260200173a0ee7a142d267c1f36714e4a8f75612f20a7972073ffffffffffffffffffffffffffffffffffffffff1673ffffffffffffffffffffffffffffffffffffffff16815260200173bcd4042de499d14e55001ccbb24a551f3b95409673ffffffffffffffffffffffffffffffffffffffff1673ffffffffffffffffffffffffffffffffffffffff1681526020017371be63f3384f5fb98995898a86b02fb2426c578873ffffffffffffffffffffffffffffffffffffffff1673ffffffffffffffffffffffffffffffffffffffff16815260200173fabb0ac9d68b0b445fb7357272ff202c5651694a73ffffffffffffffffffffffffffffffffffffffff1673ffffffffffffffffffffffffffffffffffffffff168152602001731cbd3b2770909d4e10f157cabc84c7264073c9ec73ffffffffffffffffffffffffffffffffffffffff1673ffffffffffffffffffffffffffffffffffffffff16815260200173df3e18d64bc6a983f673ab319ccae4f1a57c709773ffffffffffffffffffffffffffffffffffffffff1673ffffffffffffffffffffffffffffffffffffffff16815260200173cd3b766ccdd6ae721141f452c550ca635964ce7173ffffffffffffffffffffffffffffffffffffffff1673ffffffffffffffffffffffffffffffffffffffff168152602001732546bcd3c84621e976d8185a91a922ae77ecec3073ffffffffffffffffffffffffffffffffffffffff1673ffffffffffffffffffffffffffffffffffffffff16815260200173bda5747bfd65f08deb54cb465eb87d40e51b197e73ffffffffffffffffffffffffffffffffffffffff1673ffffffffffffffffffffffffffffffffffffffff16815260200173dd2fd4581271e230360230f9337d5c0430bf44c073ffffffffffffffffffffffffffffffffffffffff1673ffffffffffffffffffffffffffffffffffffffff168152602001738626f6940e2eb28930efb4cef49b2d1f2c9c119973ffffffffffffffffffffffffffffffffffffffff1673ffffffffffffffffffffffffffffffffffffffff16815250905060005b6013811015610c8257600160076000848460138110610b3857610b37610fac565b5b602002015173ffffffffffffffffffffffffffffffffffffffff1673ffffffffffffffffffffffffffffffffffffffff16815260200190815260200160002060006101000a81548160ff021916908315150217905550818160138110610ba157610ba0610fac565b5b60200201516008848360138110610bbb57610bba610fac565b5b6020020151604051610bcd9190611041565b908152602001604051809103902060006101000a81548173ffffffffffffffffffffffffffffffffffffffff021916908373ffffffffffffffffffffffffffffffffffffffff160217905550600060096000848460138110610c3257610c31610fac565b5b602002015173ffffffffffffffffffffffffffffffffffffffff1673ffffffffffffffffffffffffffffffffffffffff168152602001908152602001600020819055508080600101915050610b16565b505050611058565b600081519050919050565b7f4e487b7100000000000000000000000000000000000000000000000000000000600052604160045260246000fd5b7f4e487b7100000000000000000000000000000000000000000000000000000000600052602260045260246000fd5b60006002820490506001821680610d0b57607f821691505b602082108103610d1e57610d1d610cc4565b5b50919050565b60008190508160005260206000209050919050565b60006020601f8301049050919050565b600082821b905092915050565b600060088302610d867fffffffffffffffffffffffffffffffffffffffffffffffffffffffffffffffff82610d49565b610d908683610d49565b95508019841693508086168417925050509392505050565b6000819050919050565b6000819050919050565b6000610dd7610dd2610dcd84610da8565b610db2565b610da8565b9050919050565b6000819050919050565b610df183610dbc565b610e05610dfd82610dde565b848454610d56565b825550505050565b600090565b610e1a610e0d565b610e25818484610de8565b505050565b5b81811015610e4957610e3e600082610e12565b600181019050610e2b565b5050565b601f821115610e8e57610e5f81610d24565b610e6884610d39565b81016020851015610e77578190505b610e8b610e8385610d39565b830182610e2a565b50505b505050565b600082821c905092915050565b6000610eb160001984600802610e93565b1980831691505092915050565b6000610eca8383610ea0565b9150826002028217905092915050565b610ee382610c8a565b67ffffffffffffffff811115610efc57610efb610c95565b5b610f068254610cf3565b610f11828285610e4d565b600060209050601f831160018114610f445760008415610f32578287015190505b610f3c8582610ebe565b865550610fa4565b601f198416610f5286610d24565b60005b82811015610f7a57848901518255600182019150602085019450602081019050610f55565b86831015610f975784890151610f93601f891682610ea0565b8355505b6001600288020188555050505b505050505050565b7f4e487b7100000000000000000000000000000000000000000000000000000000600052603260045260246000fd5b600081905092915050565b60005b83811015611004578082015181840152602081019050610fe9565b60008484015250505050565b600061101b82610c8a565b6110258185610fdb565b9350611035818560208601610fe6565b80840191505092915050565b600061104d8284611010565b915081905092915050565b612006806110676000396000f3fe608060405234801561001057600080fd5b50600436106100f55760003560e01c80635113940d11610097578063a638580311610066578063a638580314610264578063a9059cbb14610280578063c683e0f4146102b0578063dd62ed3e146102cc576100f5565b80635113940d146101ee57806360a3ae061461020c57806370a082311461021657806395d89b4114610246576100f5565b806320949bb4116100d357806320949bb41461016657806323b872dd14610170578063313ce567146101a057806344cb285e146101be576100f5565b806306fdde03146100fa578063095ea7b31461011857806318160ddd14610148575b600080fd5b6101026102fc565b60405161010f919061158a565b60405180910390f35b610132600480360381019061012d9190611654565b61038e565b60405161013f91906116af565b60405180910390f35b6101506103b1565b60405161015d91906116d9565b60405180910390f35b61016e6103bb565b005b61018a600480360381019061018591906116f4565b6104c0565b60405161019791906116af565b60405180910390f35b6101a86104ef565b6040516101b59190611763565b60405180910390f35b6101d860048036038101906101d391906118b3565b6104f8565b6040516101e5919061190b565b60405180910390f35b6101f6610541565b604051610203919061190b565b60405180910390f35b610214610567565b005b610230600480360381019061022b9190611926565b61066c565b60405161023d91906116d9565b60405180910390f35b61024e6106b4565b60405161025b919061158a565b60405180910390f35b61027e60048036038101906102799190611953565b610746565b005b61029a60048036038101906102959190611654565b610c6d565b6040516102a791906116af565b60405180910390f35b6102ca60048036038101906102c59190611953565b610c90565b005b6102e660048036038101906102e191906119af565b610e52565b6040516102f391906116d9565b60405180910390f35b60606003805461030b90611a1e565b80601f016020809104026020016040519081016040528092919081815260200182805461033790611a1e565b80156103845780601f1061035957610100808354040283529160200191610384565b820191906000526020600020905b81548152906001019060200180831161036757829003601f168201915b5050505050905090565b600080610399610ed9565b90506103a6818585610ee1565b600191505092915050565b6000600254905090565b600560009054906101000a900473ffffffffffffffffffffffffffffffffffffffff1673ffffffffffffffffffffffffffffffffffffffff163373ffffffffffffffffffffffffffffffffffffffff1614806104645750600660009054906101000a900473ffffffffffffffffffffffffffffffffffffffff1673ffffffffffffffffffffffffffffffffffffffff163373ffffffffffffffffffffffffffffffffffffffff16145b6104a3576040517f08c379a000000000000000000000000000000000000000000000000000000000815260040161049a90611ac1565b60405180910390fd5b6001600660146101000a81548160ff021916908315150217905550565b6000806104cb610ed9565b90506104d8858285610ef3565b6104e3858585610f88565b60019150509392505050565b60006012905090565b6008818051602081018201805184825260208301602085012081835280955050505050506000915054906101000a900473ffffffffffffffffffffffffffffffffffffffff1681565b600660009054906101000a900473ffffffffffffffffffffffffffffffffffffffff1681565b600560009054906101000a900473ffffffffffffffffffffffffffffffffffffffff1673ffffffffffffffffffffffffffffffffffffffff163373ffffffffffffffffffffffffffffffffffffffff1614806106105750600660009054906101000a900473ffffffffffffffffffffffffffffffffffffffff1673ffffffffffffffffffffffffffffffffffffffff163373ffffffffffffffffffffffffffffffffffffffff16145b61064f576040517f08c379a000000000000000000000000000000000000000000000000000000000815260040161064690611ac1565b60405180910390fd5b6000600660146101000a81548160ff021916908315150217905550565b60008060008373ffffffffffffffffffffffffffffffffffffffff1673ffffffffffffffffffffffffffffffffffffffff168152602001908152602001600020549050919050565b6060600480546106c390611a1e565b80601f01602080910402602001604051908101604052809291908181526020018280546106ef90611a1e565b801561073c5780601f106107115761010080835404028352916020019161073c565b820191906000526020600020905b81548152906001019060200180831161071f57829003601f168201915b5050505050905090565b60011515600760003373ffffffffffffffffffffffffffffffffffffffff1673ffffffffffffffffffffffffffffffffffffffff16815260200190815260200160002060009054906101000a900460ff16151514806107f25750600560009054906101000a900473ffffffffffffffffffffffffffffffffffffffff1673ffffffffffffffffffffffffffffffffffffffff163373ffffffffffffffffffffffffffffffffffffffff16145b610831576040517f08c379a000000000000000000000000000000000000000000000000000000000815260040161082890611b2d565b60405180910390fd5b600660149054906101000a900460ff16610880576040517f08c379a000000000000000000000000000000000000000000000000000000000815260040161087790611b99565b60405180910390fd5b6002600960003373ffffffffffffffffffffffffffffffffffffffff1673ffffffffffffffffffffffffffffffffffffffff1681526020019081526020016000205410610902576040517f08c379a00000000000000000000000000000000000000000000000000000000081526004016108f990611c05565b60405180910390fd5b60006008836040516109149190611c61565b908152602001604051809103902060009054906101000a900473ffffffffffffffffffffffffffffffffffffffff169050600073ffffffffffffffffffffffffffffffffffffffff168173ffffffffffffffffffffffffffffffffffffffff16036109b4576040517f08c379a00000000000000000000000000000000000000000000000000000000081526004016109ab90611cc4565b60405180910390fd5b3373ffffffffffffffffffffffffffffffffffffffff168173ffffffffffffffffffffffffffffffffffffffff1603610a22576040517f08c379a0000000000000000000000000000000000000000000000000000000008152600401610a1990611d30565b60405180910390fd5b600a60003373ffffffffffffffffffffffffffffffffffffffff1673ffffffffffffffffffffffffffffffffffffffff16815260200190815260200160002060008273ffffffffffffffffffffffffffffffffffffffff1673ffffffffffffffffffffffffffffffffffffffff16815260200190815260200160002060009054906101000a900460ff1615610aec576040517f08c379a0000000000000000000000000000000000000000000000000000000008152600401610ae390611d9c565b60405180910390fd5b6000670de0b6b3a764000083610b029190611deb565b9050670de0b6b3a76400006002610b199190611deb565b811115610b5b576040517f08c379a0000000000000000000000000000000000000000000000000000000008152600401610b5290611e79565b60405180910390fd5b610b65828261107c565b610b7b33600583610b769190611ec8565b61107c565b6001600960003373ffffffffffffffffffffffffffffffffffffffff1673ffffffffffffffffffffffffffffffffffffffff1681526020019081526020016000206000828254610bcb9190611ef9565b925050819055506001600a60003373ffffffffffffffffffffffffffffffffffffffff1673ffffffffffffffffffffffffffffffffffffffff16815260200190815260200160002060008473ffffffffffffffffffffffffffffffffffffffff1673ffffffffffffffffffffffffffffffffffffffff16815260200190815260200160002060006101000a81548160ff02191690831515021790555050505050565b600080610c78610ed9565b9050610c85818585610f88565b600191505092915050565b600560009054906101000a900473ffffffffffffffffffffffffffffffffffffffff1673ffffffffffffffffffffffffffffffffffffffff163373ffffffffffffffffffffffffffffffffffffffff161480610d395750600660009054906101000a900473ffffffffffffffffffffffffffffffffffffffff1673ffffffffffffffffffffffffffffffffffffffff163373ffffffffffffffffffffffffffffffffffffffff16145b610d78576040517f08c379a0000000000000000000000000000000000000000000000000000000008152600401610d6f90611ac1565b60405180910390fd5b6000600883604051610d8a9190611c61565b908152602001604051809103902060009054906101000a900473ffffffffffffffffffffffffffffffffffffffff169050600073ffffffffffffffffffffffffffffffffffffffff168173ffffffffffffffffffffffffffffffffffffffff1603610e2a576040517f08c379a0000000000000000000000000000000000000000000000000000000008152600401610e2190611f79565b60405180910390fd5b6000670de0b6b3a764000083610e409190611deb565b9050610e4c828261107c565b50505050565b6000600160008473ffffffffffffffffffffffffffffffffffffffff1673ffffffffffffffffffffffffffffffffffffffff16815260200190815260200160002060008373ffffffffffffffffffffffffffffffffffffffff1673ffffffffffffffffffffffffffffffffffffffff16815260200190815260200160002054905092915050565b600033905090565b610eee83838360016110fe565b505050565b6000610eff8484610e52565b90507fffffffffffffffffffffffffffffffffffffffffffffffffffffffffffffffff811015610f825781811015610f72578281836040517ffb8f41b2000000000000000000000000000000000000000000000000000000008152600401610f6993929190611f99565b60405180910390fd5b610f81848484840360006110fe565b5b50505050565b600073ffffffffffffffffffffffffffffffffffffffff168373ffffffffffffffffffffffffffffffffffffffff1603610ffa5760006040517f96c6fd1e000000000000000000000000000000000000000000000000000000008152600401610ff1919061190b565b60405180910390fd5b600073ffffffffffffffffffffffffffffffffffffffff168273ffffffffffffffffffffffffffffffffffffffff160361106c5760006040517fec442f05000000000000000000000000000000000000000000000000000000008152600401611063919061190b565b60405180910390fd5b6110778383836112d5565b505050565b600073ffffffffffffffffffffffffffffffffffffffff168273ffffffffffffffffffffffffffffffffffffffff16036110ee5760006040517fec442f050000000000000000000000000000000000000000000000000000000081526004016110e5919061190b565b60405180910390fd5b6110fa600083836112d5565b5050565b600073ffffffffffffffffffffffffffffffffffffffff168473ffffffffffffffffffffffffffffffffffffffff16036111705760006040517fe602df05000000000000000000000000000000000000000000000000000000008152600401611167919061190b565b60405180910390fd5b600073ffffffffffffffffffffffffffffffffffffffff168373ffffffffffffffffffffffffffffffffffffffff16036111e25760006040517f94280d620000000000000000000000000000000000000000000000000000000081526004016111d9919061190b565b60405180910390fd5b81600160008673ffffffffffffffffffffffffffffffffffffffff1673ffffffffffffffffffffffffffffffffffffffff16815260200190815260200160002060008573ffffffffffffffffffffffffffffffffffffffff1673ffffffffffffffffffffffffffffffffffffffff1681526020019081526020016000208190555080156112cf578273ffffffffffffffffffffffffffffffffffffffff168473ffffffffffffffffffffffffffffffffffffffff167f8c5be1e5ebec7d5bd14f71427d1e84f3dd0314c0f7b2291e5b200ac8c7c3b925846040516112c691906116d9565b60405180910390a35b50505050565b600073ffffffffffffffffffffffffffffffffffffffff168373ffffffffffffffffffffffffffffffffffffffff160361132757806002600082825461131b9190611ef9565b925050819055506113fa565b60008060008573ffffffffffffffffffffffffffffffffffffffff1673ffffffffffffffffffffffffffffffffffffffff168152602001908152602001600020549050818110156113b3578381836040517fe450d38c0000000000000000000000000000000000000000000000000000000081526004016113aa93929190611f99565b60405180910390fd5b8181036000808673ffffffffffffffffffffffffffffffffffffffff1673ffffffffffffffffffffffffffffffffffffffff16815260200190815260200160002081905550505b600073ffffffffffffffffffffffffffffffffffffffff168273ffffffffffffffffffffffffffffffffffffffff16036114435780600260008282540392505081905550611490565b806000808473ffffffffffffffffffffffffffffffffffffffff1673ffffffffffffffffffffffffffffffffffffffff168152602001908152602001600020600082825401925050819055505b8173ffffffffffffffffffffffffffffffffffffffff168373ffffffffffffffffffffffffffffffffffffffff167fddf252ad1be2c89b69c2b068fc378daa952ba7f163c4a11628f55a4df523b3ef836040516114ed91906116d9565b60405180910390a3505050565b600081519050919050565b600082825260208201905092915050565b60005b83811015611534578082015181840152602081019050611519565b60008484015250505050565b6000601f19601f8301169050919050565b600061155c826114fa565b6115668185611505565b9350611576818560208601611516565b61157f81611540565b840191505092915050565b600060208201905081810360008301526115a48184611551565b905092915050565b6000604051905090565b600080fd5b600080fd5b600073ffffffffffffffffffffffffffffffffffffffff82169050919050565b60006115eb826115c0565b9050919050565b6115fb816115e0565b811461160657600080fd5b50565b600081359050611618816115f2565b92915050565b6000819050919050565b6116318161161e565b811461163c57600080fd5b50565b60008135905061164e81611628565b92915050565b6000806040838503121561166b5761166a6115b6565b5b600061167985828601611609565b925050602061168a8582860161163f565b9150509250929050565b60008115159050919050565b6116a981611694565b82525050565b60006020820190506116c460008301846116a0565b92915050565b6116d38161161e565b82525050565b60006020820190506116ee60008301846116ca565b92915050565b60008060006060848603121561170d5761170c6115b6565b5b600061171b86828701611609565b935050602061172c86828701611609565b925050604061173d8682870161163f565b9150509250925092565b600060ff82169050919050565b61175d81611747565b82525050565b60006020820190506117786000830184611754565b92915050565b600080fd5b600080fd5b7f4e487b7100000000000000000000000000000000000000000000000000000000600052604160045260246000fd5b6117c082611540565b810181811067ffffffffffffffff821117156117df576117de611788565b5b80604052505050565b60006117f26115ac565b90506117fe82826117b7565b919050565b600067ffffffffffffffff82111561181e5761181d611788565b5b61182782611540565b9050602081019050919050565b82818337600083830152505050565b600061185661185184611803565b6117e8565b90508281526020810184848401111561187257611871611783565b5b61187d848285611834565b509392505050565b600082601f83011261189a5761189961177e565b5b81356118aa848260208601611843565b91505092915050565b6000602082840312156118c9576118c86115b6565b5b600082013567ffffffffffffffff8111156118e7576118e66115bb565b5b6118f384828501611885565b91505092915050565b611905816115e0565b82525050565b600060208201905061192060008301846118fc565b92915050565b60006020828403121561193c5761193b6115b6565b5b600061194a84828501611609565b91505092915050565b6000806040838503121561196a576119696115b6565b5b600083013567ffffffffffffffff811115611988576119876115bb565b5b61199485828601611885565b92505060206119a58582860161163f565b9150509250929050565b600080604083850312156119c6576119c56115b6565b5b60006119d485828601611609565b92505060206119e585828601611609565b9150509250929050565b7f4e487b7100000000000000000000000000000000000000000000000000000000600052602260045260246000fd5b60006002820490506001821680611a3657607f821691505b602082108103611a4957611a486119ef565b5b50919050565b7f4170656e6173206f206f776e6572206f7520612070726f666573736f7261207060008201527f6f64656d2065786563757461722065737461206163616f000000000000000000602082015250565b6000611aab603783611505565b9150611ab682611a4f565b604082019050919050565b60006020820190508181036000830152611ada81611a9e565b9050919050565b7f5573756172696f206e616f206175746f72697a61646f00000000000000000000600082015250565b6000611b17601683611505565b9150611b2282611ae1565b602082019050919050565b60006020820190508181036000830152611b4681611b0a565b9050919050565b7f4120766f746163616f2065737461206465736174697661646100000000000000600082015250565b6000611b83601983611505565b9150611b8e82611b4d565b602082019050919050565b60006020820190508181036000830152611bb281611b76565b9050919050565b7f566f6365206a612075736f7520746f646f73206f73207365757320766f746f73600082015250565b6000611bef602083611505565b9150611bfa82611bb9565b602082019050919050565b60006020820190508181036000830152611c1e81611be2565b9050919050565b600081905092915050565b6000611c3b826114fa565b611c458185611c25565b9350611c55818560208601611516565b80840191505092915050565b6000611c6d8284611c30565b915081905092915050565b7f5573756172696f206e616f2065682063616e64696461746f0000000000000000600082015250565b6000611cae601883611505565b9150611cb982611c78565b602082019050919050565b60006020820190508181036000830152611cdd81611ca1565b9050919050565b7f4e616f20706f646520766f74617220656d207369206d65736d6f000000000000600082015250565b6000611d1a601a83611505565b9150611d2582611ce4565b602082019050919050565b60006020820190508181036000830152611d4981611d0d565b9050919050565b7f566f6365206a6120766f746f75206e65737365207573756172696f0000000000600082015250565b6000611d86601b83611505565b9150611d9182611d50565b602082019050919050565b60006020820190508181036000830152611db581611d79565b9050919050565b7f4e487b7100000000000000000000000000000000000000000000000000000000600052601160045260246000fd5b6000611df68261161e565b9150611e018361161e565b9250828202611e0f8161161e565b91508282048414831517611e2657611e25611dbc565b5b5092915050565b7f4d6178696d6f207065726d697469646f2065203220547572696e677300000000600082015250565b6000611e63601c83611505565b9150611e6e82611e2d565b602082019050919050565b60006020820190508181036000830152611e9281611e56565b9050919050565b7f4e487b7100000000000000000000000000000000000000000000000000000000600052601260045260246000fd5b6000611ed38261161e565b9150611ede8361161e565b925082611eee57611eed611e99565b5b828204905092915050565b6000611f048261161e565b9150611f0f8361161e565b9250828201905080821115611f2757611f26611dbc565b5b92915050565b7f436f64696e6f6d6520696e76616c69646f000000000000000000000000000000600082015250565b6000611f63601183611505565b9150611f6e82611f2d565b602082019050919050565b60006020820190508181036000830152611f9281611f56565b9050919050565b6000606082019050611fae60008301866118fc565b611fbb60208301856116ca565b611fc860408301846116ca565b94935050505056fea26469706673582212207f1a6a04ce1606a9f4ee94765fb48f375c3f690dfc336588a6d518f5d548297a64736f6c634300081c0033",
  "linkReferences": {},
  "deployedLinkReferences": {}
}