{
  "_format": "hh-sol-artifact-1",
  "contractName": "Turing",
  "sourceName": "contracts/Turing.sol",
  "abi": [
    {
      "inputs": [],
      "stateMutability": "nonpayable",
      "type": "constructor"
    },
    {
      "inputs": [
        {
          "internalType": "address",
          "name": "spender",
          "type": "address"
        },
        {
          "internalType": "uint256",
          "name": "allowance",
          "type": "uint256"
        },
        {
          "internalType": "uint256",
          "name": "needed",
          "type": "uint256"
        }
      ],
      "name": "ERC20InsufficientAllowance",
      "type": "error"
    },
    {
      "inputs": [
        {
          "internalType": "address",
          "name": "sender",
          "type": "address"
        },
        {
          "internalType": "uint256",
          "name": "balance",
          "type": "uint256"
        },
        {
          "internalType": "uint256",
          "name": "needed",
          "type": "uint256"
        }
      ],
      "name": "ERC20InsufficientBalance",
      "type": "error"
    },
    {
      "inputs": [
        {
          "internalType": "address",
          "name": "approver",
          "type": "address"
        }
      ],
      "name": "ERC20InvalidApprover",
      "type": "error"
    },
    {
      "inputs": [
        {
          "internalType": "address",
          "name": "receiver",
          "type": "address"
        }
      ],
      "name": "ERC20InvalidReceiver",
      "type": "error"
    },
    {
      "inputs": [
        {
          "internalType": "address",
          "name": "sender",
          "type": "address"
        }
      ],
      "name": "ERC20InvalidSender",
      "type": "error"
    },
    {
      "inputs": [
        {
          "internalType": "address",
          "name": "spender",
          "type": "address"
        }
      ],
      "name": "ERC20InvalidSpender",
      "type": "error"
    },
    {
      "anonymous": false,
      "inputs": [
        {
          "indexed": true,
          "internalType": "address",
          "name": "owner",
          "type": "address"
        },
        {
          "indexed": true,
          "internalType": "address",
          "name": "spender",
          "type": "address"
        },
        {
          "indexed": false,
          "internalType": "uint256",
          "name": "value",
          "type": "uint256"
        }
      ],
      "name": "Approval",
      "type": "event"
    },
    {
      "anonymous": false,
      "inputs": [
        {
          "indexed": false,
          "internalType": "address",
          "name": "recipient",
          "type": "address"
        },
        {
          "indexed": false,
          "internalType": "string",
          "name": "codename",
          "type": "string"
        },
        {
          "indexed": false,
          "internalType": "uint256",
          "name": "amount",
          "type": "uint256"
        }
      ],
      "name": "IssueTokenCast",
      "type": "event"
    },
    {
      "anonymous": false,
      "inputs": [
        {
          "indexed": true,
          "internalType": "address",
          "name": "from",
          "type": "address"
        },
        {
          "indexed": true,
          "internalType": "address",
          "name": "to",
          "type": "address"
        },
        {
          "indexed": false,
          "internalType": "uint256",
          "name": "value",
          "type": "uint256"
        }
      ],
      "name": "Transfer",
      "type": "event"
    },
    {
      "anonymous": false,
      "inputs": [
        {
          "indexed": false,
          "internalType": "address",
          "name": "recipient",
          "type": "address"
        },
        {
          "indexed": false,
          "internalType": "string",
          "name": "codename",
          "type": "string"
        },
        {
          "indexed": false,
          "internalType": "uint256",
          "name": "amount",
          "type": "uint256"
        }
      ],
      "name": "VoteCast",
      "type": "event"
    },
    {
      "inputs": [
        {
          "internalType": "address",
          "name": "owner",
          "type": "address"
        },
        {
          "internalType": "address",
          "name": "spender",
          "type": "address"
        }
      ],
      "name": "allowance",
      "outputs": [
        {
          "internalType": "uint256",
          "name": "",
          "type": "uint256"
        }
      ],
      "stateMutability": "view",
      "type": "function"
    },
    {
      "inputs": [
        {
          "internalType": "address",
          "name": "spender",
          "type": "address"
        },
        {
          "internalType": "uint256",
          "name": "value",
          "type": "uint256"
        }
      ],
      "name": "approve",
      "outputs": [
        {
          "internalType": "bool",
          "name": "",
          "type": "bool"
        }
      ],
      "stateMutability": "nonpayable",
      "type": "function"
    },
    {
      "inputs": [
        {
          "internalType": "address",
          "name": "account",
          "type": "address"
        }
      ],
      "name": "balanceOf",
      "outputs": [
        {
          "internalType": "uint256",
          "name": "",
          "type": "uint256"
        }
      ],
      "stateMutability": "view",
      "type": "function"
    },
    {
      "inputs": [],
      "name": "decimals",
      "outputs": [
        {
          "internalType": "uint8",
          "name": "",
          "type": "uint8"
        }
      ],
      "stateMutability": "view",
      "type": "function"
    },
    {
      "inputs": [],
      "name": "getAddressesAndBalances",
      "outputs": [
        {
          "internalType": "string[]",
          "name": "",
          "type": "string[]"
        },
        {
          "internalType": "address[]",
          "name": "",
          "type": "address[]"
        },
        {
          "internalType": "uint256[]",
          "name": "",
          "type": "uint256[]"
        }
      ],
      "stateMutability": "view",
      "type": "function"
    },
    {
      "inputs": [
        {
          "internalType": "string",
          "name": "codename",
          "type": "string"
        },
        {
          "internalType": "uint256",
          "name": "qtd",
          "type": "uint256"
        }
      ],
      "name": "issueToken",
      "outputs": [],
      "stateMutability": "nonpayable",
      "type": "function"
    },
    {
      "inputs": [],
      "name": "name",
      "outputs": [
        {
          "internalType": "string",
          "name": "",
          "type": "string"
        }
      ],
      "stateMutability": "view",
      "type": "function"
    },
    {
      "inputs": [],
      "name": "symbol",
      "outputs": [
        {
          "internalType": "string",
          "name": "",
          "type": "string"
        }
      ],
      "stateMutability": "view",
      "type": "function"
    },
    {
      "inputs": [],
      "name": "totalSupply",
      "outputs": [
        {
          "internalType": "uint256",
          "name": "",
          "type": "uint256"
        }
      ],
      "stateMutability": "view",
      "type": "function"
    },
    {
      "inputs": [
        {
          "internalType": "address",
          "name": "to",
          "type": "address"
        },
        {
          "internalType": "uint256",
          "name": "value",
          "type": "uint256"
        }
      ],
      "name": "transfer",
      "outputs": [
        {
          "internalType": "bool",
          "name": "",
          "type": "bool"
        }
      ],
      "stateMutability": "nonpayable",
      "type": "function"
    },
    {
      "inputs": [
        {
          "internalType": "address",
          "name": "from",
          "type": "address"
        },
        {
          "internalType": "address",
          "name": "to",
          "type": "address"
        },
        {
          "internalType": "uint256",
          "name": "value",
          "type": "uint256"
        }
      ],
      "name": "transferFrom",
      "outputs": [
        {
          "internalType": "bool",
          "name": "",
          "type": "bool"
        }
      ],
      "stateMutability": "nonpayable",
      "type": "function"
    },
    {
      "inputs": [
        {
          "internalType": "string",
          "name": "codename",
          "type": "string"
        },
        {
          "internalType": "uint256",
          "name": "qtd",
          "type": "uint256"
        }
      ],
      "name": "vote",
      "outputs": [],
      "stateMutability": "nonpayable",
      "type": "function"
    },
    {
      "inputs": [],
      "name": "votingOff",
      "outputs": [],
      "stateMutability": "nonpayable",
      "type": "function"
    },
    {
      "inputs": [],
      "name": "votingOn",
      "outputs": [],
      "stateMutability": "nonpayable",
      "type": "function"
    }
  ],
  "bytecode": "0x608060405234801561001057600080fd5b506040518060400160405280600c81526020017f547572696e6720546f6b656e00000000000000000000000000000000000000008152506040518060400160405280600381526020017f5455520000000000000000000000000000000000000000000000000000000000815250816003908161008c919061101d565b50806004908161009c919061101d565b50505033600560006101000a81548173ffffffffffffffffffffffffffffffffffffffff021916908373ffffffffffffffffffffffffffffffffffffffff16021790555073502542668af09fa7aea52174b9965a7799343df7600660006101000a81548173ffffffffffffffffffffffffffffffffffffffff021916908373ffffffffffffffffffffffffffffffffffffffff1602179055506001600660146101000a81548160ff0219169083151502179055506040518061028001604052806040518060400160405280600581526020017f6e6f6d653000000000000000000000000000000000000000000000000000000081525081526020016040518060400160405280600581526020017f6e6f6d653100000000000000000000000000000000000000000000000000000081525081526020016040518060400160405280600581526020017f6e6f6d653200000000000000000000000000000000000000000000000000000081525081526020016040518060400160405280600581526020017f6e6f6d653300000000000000000000000000000000000000000000000000000081525081526020016040518060400160405280600581526020017f6e6f6d653400000000000000000000000000000000000000000000000000000081525081526020016040518060400160405280600581526020017f6e6f6d653500000000000000000000000000000000000000000000000000000081525081526020016040518060400160405280600581526020017f6e6f6d653600000000000000000000000000000000000000000000000000000081525081526020016040518060400160405280600581526020017f6e6f6d653700000000000000000000000000000000000000000000000000000081525081526020016040518060400160405280600581526020017f6e6f6d653800000000000000000000000000000000000000000000000000000081525081526020016040518060400160405280600581526020017f6e6f6d653900000000000000000000000000000000000000000000000000000081525081526020016040518060400160405280600681526020017f6e6f6d653130000000000000000000000000000000000000000000000000000081525081526020016040518060400160405280600681526020017f6e6f6d653131000000000000000000000000000000000000000000000000000081525081526020016040518060400160405280600681526020017f6e6f6d653132000000000000000000000000000000000000000000000000000081525081526020016040518060400160405280600681526020017f6e6f6d653133000000000000000000000000000000000000000000000000000081525081526020016040518060400160405280600681526020017f6e6f6d653134000000000000000000000000000000000000000000000000000081525081526020016040518060400160405280600681526020017f6e6f6d653135000000000000000000000000000000000000000000000000000081525081526020016040518060400160405280600681526020017f6e6f6d653136000000000000000000000000000000000000000000000000000081525081526020016040518060400160405280600681526020017f6e6f6d653137000000000000000000000000000000000000000000000000000081525081526020016040518060400160405280600681526020017f6e6f6d653138000000000000000000000000000000000000000000000000000081525081526020016040518060400160405280600681526020017f6e6f6d65313900000000000000000000000000000000000000000000000000008152508152506007906014610606929190610d00565b50600060405180610280016040528073f39fd6e51aad88f6f4ce6ab8827279cfffb9226673ffffffffffffffffffffffffffffffffffffffff1673ffffffffffffffffffffffffffffffffffffffff1681526020017370997970c51812dc3a010c7d01b50e0d17dc79c873ffffffffffffffffffffffffffffffffffffffff1673ffffffffffffffffffffffffffffffffffffffff168152602001733c44cdddb6a900fa2b585dd299e03d12fa4293bc73ffffffffffffffffffffffffffffffffffffffff1673ffffffffffffffffffffffffffffffffffffffff1681526020017390f79bf6eb2c4f870365e785982e1f101e93b90673ffffffffffffffffffffffffffffffffffffffff1673ffffffffffffffffffffffffffffffffffffffff1681526020017315d34aaf54267db7d7c367839aaf71a00a2c6a6573ffffffffffffffffffffffffffffffffffffffff1673ffffffffffffffffffffffffffffffffffffffff168152602001739965507d1a55bcc2695c58ba16fb37d819b0a4dc73ffffffffffffffffffffffffffffffffffffffff1673ffffffffffffffffffffffffffffffffffffffff16815260200173976ea74026e726554db657fa54763abd0c3a0aa973ffffffffffffffffffffffffffffffffffffffff1673ffffffffffffffffffffffffffffffffffffffff1681526020017314dc79964da2c08b23698b3d3cc7ca32193d995573ffffffffffffffffffffffffffffffffffffffff1673ffffffffffffffffffffffffffffffffffffffff1681526020017323618e81e3f5cdf7f54c3d65f7fbc0abf5b21e8f73ffffffffffffffffffffffffffffffffffffffff1673ffffffffffffffffffffffffffffffffffffffff16815260200173a0ee7a142d267c1f36714e4a8f75612f20a7972073ffffffffffffffffffffffffffffffffffffffff1673ffffffffffffffffffffffffffffffffffffffff16815260200173bcd4042de499d14e55001ccbb24a551f3b95409673ffffffffffffffffffffffffffffffffffffffff1673ffffffffffffffffffffffffffffffffffffffff1681526020017371be63f3384f5fb98995898a86b02fb2426c578873ffffffffffffffffffffffffffffffffffffffff1673ffffffffffffffffffffffffffffffffffffffff16815260200173fabb0ac9d68b0b445fb7357272ff202c5651694a73ffffffffffffffffffffffffffffffffffffffff1673ffffffffffffffffffffffffffffffffffffffff168152602001731cbd3b2770909d4e10f157cabc84c7264073c9ec73ffffffffffffffffffffffffffffffffffffffff1673ffffffffffffffffffffffffffffffffffffffff16815260200173df3e18d64bc6a983f673ab319ccae4f1a57c709773ffffffffffffffffffffffffffffffffffffffff1673ffffffffffffffffffffffffffffffffffffffff16815260200173cd3b766ccdd6ae721141f452c550ca635964ce7173ffffffffffffffffffffffffffffffffffffffff1673ffffffffffffffffffffffffffffffffffffffff168152602001732546bcd3c84621e976d8185a91a922ae77ecec3073ffffffffffffffffffffffffffffffffffffffff1673ffffffffffffffffffffffffffffffffffffffff16815260200173bda5747bfd65f08deb54cb465eb87d40e51b197e73ffffffffffffffffffffffffffffffffffffffff1673ffffffffffffffffffffffffffffffffffffffff16815260200173dd2fd4581271e230360230f9337d5c0430bf44c073ffffffffffffffffffffffffffffffffffffffff1673ffffffffffffffffffffffffffffffffffffffff168152602001738626f6940e2eb28930efb4cef49b2d1f2c9c119973ffffffffffffffffffffffffffffffffffffffff1673ffffffffffffffffffffffffffffffffffffffff16815250905060005b6014811015610cf9576001601b6000848460148110610bb257610bb16110ef565b5b602002015173ffffffffffffffffffffffffffffffffffffffff1673ffffffffffffffffffffffffffffffffffffffff16815260200190815260200160002060006101000a81548160ff021916908315150217905550818160148110610c1b57610c1a6110ef565b5b6020020151601c60078360148110610c3657610c356110ef565b5b01604051610c4491906111ac565b908152602001604051809103902060006101000a81548173ffffffffffffffffffffffffffffffffffffffff021916908373ffffffffffffffffffffffffffffffffffffffff1602179055506000601d6000848460148110610ca957610ca86110ef565b5b602002015173ffffffffffffffffffffffffffffffffffffffff1673ffffffffffffffffffffffffffffffffffffffff168152602001908152602001600020819055508080600101915050610b90565b50506111c3565b8260148101928215610d3b579160200282015b82811115610d3a578251829081610d2a919061101d565b5091602001919060010190610d13565b5b509050610d489190610d4c565b5090565b5b80821115610d6c5760008181610d639190610d70565b50600101610d4d565b5090565b508054610d7c90610e36565b6000825580601f10610d8e5750610dad565b601f016020900490600052602060002090810190610dac9190610db0565b5b50565b5b80821115610dc9576000816000905550600101610db1565b5090565b600081519050919050565b7f4e487b7100000000000000000000000000000000000000000000000000000000600052604160045260246000fd5b7f4e487b7100000000000000000000000000000000000000000000000000000000600052602260045260246000fd5b60006002820490506001821680610e4e57607f821691505b602082108103610e6157610e60610e07565b5b50919050565b60008190508160005260206000209050919050565b60006020601f8301049050919050565b600082821b905092915050565b600060088302610ec97fffffffffffffffffffffffffffffffffffffffffffffffffffffffffffffffff82610e8c565b610ed38683610e8c565b95508019841693508086168417925050509392505050565b6000819050919050565b6000819050919050565b6000610f1a610f15610f1084610eeb565b610ef5565b610eeb565b9050919050565b6000819050919050565b610f3483610eff565b610f48610f4082610f21565b848454610e99565b825550505050565b600090565b610f5d610f50565b610f68818484610f2b565b505050565b5b81811015610f8c57610f81600082610f55565b600181019050610f6e565b5050565b601f821115610fd157610fa281610e67565b610fab84610e7c565b81016020851015610fba578190505b610fce610fc685610e7c565b830182610f6d565b50505b505050565b600082821c905092915050565b6000610ff460001984600802610fd6565b1980831691505092915050565b600061100d8383610fe3565b9150826002028217905092915050565b61102682610dcd565b67ffffffffffffffff81111561103f5761103e610dd8565b5b6110498254610e36565b611054828285610f90565b600060209050601f8311600181146110875760008415611075578287015190505b61107f8582611001565b8655506110e7565b601f19841661109586610e67565b60005b828110156110bd57848901518255600182019150602085019450602081019050611098565b868310156110da57848901516110d6601f891682610fe3565b8355505b6001600288020188555050505b505050505050565b7f4e487b7100000000000000000000000000000000000000000000000000000000600052603260045260246000fd5b600081905092915050565b6000815461113681610e36565b611140818661111e565b9450600182166000811461115b5760018114611170576111a3565b60ff19831686528115158202860193506111a3565b61117985610e67565b60005b8381101561119b5781548189015260018201915060208101905061117c565b838801955050505b50505092915050565b60006111b88284611129565b915081905092915050565b612496806111d26000396000f3fe608060405234801561001057600080fd5b50600436106100ea5760003560e01c806370a082311161008c578063a9059cbb11610066578063a9059cbb14610227578063b774224514610257578063c683e0f414610277578063dd62ed3e14610293576100ea565b806370a08231146101bd57806395d89b41146101ed578063a63858031461020b576100ea565b806320949bb4116100c857806320949bb41461015b57806323b872dd14610165578063313ce5671461019557806360a3ae06146101b3576100ea565b806306fdde03146100ef578063095ea7b31461010d57806318160ddd1461013d575b600080fd5b6100f76102c3565b6040516101049190611900565b60405180910390f35b610127600480360381019061012291906119ca565b610355565b6040516101349190611a25565b60405180910390f35b610145610378565b6040516101529190611a4f565b60405180910390f35b610163610382565b005b61017f600480360381019061017a9190611a6a565b6104a3565b60405161018c9190611a25565b60405180910390f35b61019d6104d2565b6040516101aa9190611ad9565b60405180910390f35b6101bb6104db565b005b6101d760048036038101906101d29190611af4565b6105fc565b6040516101e49190611a4f565b60405180910390f35b6101f5610644565b6040516102029190611900565b60405180910390f35b61022560048036038101906102209190611c56565b6106d6565b005b610241600480360381019061023c91906119ca565b610cc3565b60405161024e9190611a25565b60405180910390f35b61025f610ce6565b60405161026e93929190611f3a565b60405180910390f35b610291600480360381019061028c9190611c56565b610f92565b005b6102ad60048036038101906102a89190611f86565b6111c8565b6040516102ba9190611a4f565b60405180910390f35b6060600380546102d290611ff5565b80601f01602080910402602001604051908101604052809291908181526020018280546102fe90611ff5565b801561034b5780601f106103205761010080835404028352916020019161034b565b820191906000526020600020905b81548152906001019060200180831161032e57829003601f168201915b5050505050905090565b60008061036061124f565b905061036d818585611257565b600191505092915050565b6000600254905090565b600560009054906101000a900473ffffffffffffffffffffffffffffffffffffffff1673ffffffffffffffffffffffffffffffffffffffff163373ffffffffffffffffffffffffffffffffffffffff16148061042b5750600660009054906101000a900473ffffffffffffffffffffffffffffffffffffffff1673ffffffffffffffffffffffffffffffffffffffff163373ffffffffffffffffffffffffffffffffffffffff16145b6040518060600160405280603881526020016122fc6038913990610485576040517f08c379a000000000000000000000000000000000000000000000000000000000815260040161047c9190611900565b60405180910390fd5b506001600660146101000a81548160ff021916908315150217905550565b6000806104ae61124f565b90506104bb858285611269565b6104c68585856112fe565b60019150509392505050565b60006012905090565b600560009054906101000a900473ffffffffffffffffffffffffffffffffffffffff1673ffffffffffffffffffffffffffffffffffffffff163373ffffffffffffffffffffffffffffffffffffffff1614806105845750600660009054906101000a900473ffffffffffffffffffffffffffffffffffffffff1673ffffffffffffffffffffffffffffffffffffffff163373ffffffffffffffffffffffffffffffffffffffff16145b6040518060600160405280603881526020016122fc60389139906105de576040517f08c379a00000000000000000000000000000000000000000000000000000000081526004016105d59190611900565b60405180910390fd5b506000600660146101000a81548160ff021916908315150217905550565b60008060008373ffffffffffffffffffffffffffffffffffffffff1673ffffffffffffffffffffffffffffffffffffffff168152602001908152602001600020549050919050565b60606004805461065390611ff5565b80601f016020809104026020016040519081016040528092919081815260200182805461067f90611ff5565b80156106cc5780601f106106a1576101008083540402835291602001916106cc565b820191906000526020600020905b8154815290600101906020018083116106af57829003601f168201915b5050505050905090565b60011515601b60003373ffffffffffffffffffffffffffffffffffffffff1673ffffffffffffffffffffffffffffffffffffffff16815260200190815260200160002060009054906101000a900460ff161515146040518060600160405280602c815260200161236a602c913990610784576040517f08c379a000000000000000000000000000000000000000000000000000000000815260040161077b9190611900565b60405180910390fd5b50600660149054906101000a900460ff1660405180606001604052806025815260200161239660259139906107ef576040517f08c379a00000000000000000000000000000000000000000000000000000000081526004016107e69190611900565b60405180910390fd5b506002601d60003373ffffffffffffffffffffffffffffffffffffffff1673ffffffffffffffffffffffffffffffffffffffff1681526020019081526020016000205410604051806060016040528060318152602001612430603191399061088d576040517f08c379a00000000000000000000000000000000000000000000000000000000081526004016108849190611900565b60405180910390fd5b506000601c836040516108a09190612062565b908152602001604051809103902060009054906101000a900473ffffffffffffffffffffffffffffffffffffffff169050600073ffffffffffffffffffffffffffffffffffffffff168173ffffffffffffffffffffffffffffffffffffffff161415604051806060016040528060368152602001612334603691399061095c576040517f08c379a00000000000000000000000000000000000000000000000000000000081526004016109539190611900565b60405180910390fd5b503373ffffffffffffffffffffffffffffffffffffffff168173ffffffffffffffffffffffffffffffffffffffff1614156040518060400160405280602081526020017f566f6365206e616f20706f646520766f74617220656d207369206d65736d6f2e81525090610a04576040517f08c379a00000000000000000000000000000000000000000000000000000000081526004016109fb9190611900565b60405180910390fd5b50601e60003373ffffffffffffffffffffffffffffffffffffffff1673ffffffffffffffffffffffffffffffffffffffff16815260200190815260200160002060008273ffffffffffffffffffffffffffffffffffffffff1673ffffffffffffffffffffffffffffffffffffffff16815260200190815260200160002060009054906101000a900460ff16156040518060800160405280604481526020016123bb6044913990610aea576040517f08c379a0000000000000000000000000000000000000000000000000000000008152600401610ae19190611900565b60405180910390fd5b506000670de0b6b3a764000083610b0191906120a8565b9050670de0b6b3a76400006002610b1891906120a8565b8111156040518060600160405280603181526020016123ff6031913990610b75576040517f08c379a0000000000000000000000000000000000000000000000000000000008152600401610b6c9190611900565b60405180910390fd5b50610b8082826113f2565b610b9633600583610b919190612119565b6113f2565b6001601d60003373ffffffffffffffffffffffffffffffffffffffff1673ffffffffffffffffffffffffffffffffffffffff1681526020019081526020016000206000828254610be6919061214a565b925050819055506001601e60003373ffffffffffffffffffffffffffffffffffffffff1673ffffffffffffffffffffffffffffffffffffffff16815260200190815260200160002060008473ffffffffffffffffffffffffffffffffffffffff1673ffffffffffffffffffffffffffffffffffffffff16815260200190815260200160002060006101000a81548160ff0219169083151502179055507f1fb22019789732eae1f9274664ab21c768f1e37e3782d8f5b620d139aac293b4828583604051610cb59392919061218d565b60405180910390a150505050565b600080610cce61124f565b9050610cdb8185856112fe565b600191505092915050565b606080606060006014905060008167ffffffffffffffff811115610d0d57610d0c611b2b565b5b604051908082528060200260200182016040528015610d3b5781602001602082028036833780820191505090505b50905060008267ffffffffffffffff811115610d5a57610d59611b2b565b5b604051908082528060200260200182016040528015610d885781602001602082028036833780820191505090505b50905060008367ffffffffffffffff811115610da757610da6611b2b565b5b604051908082528060200260200182016040528015610dda57816020015b6060815260200190600190039081610dc55790505b50905060005b84811015610f7f576000601c60078360148110610e0057610dff6121cb565b5b01604051610e0e9190612292565b908152602001604051809103902060009054906101000a900473ffffffffffffffffffffffffffffffffffffffff16905080858381518110610e5357610e526121cb565b5b602002602001019073ffffffffffffffffffffffffffffffffffffffff16908173ffffffffffffffffffffffffffffffffffffffff1681525050610e96816105fc565b848381518110610ea957610ea86121cb565b5b60200260200101818152505060078260148110610ec957610ec86121cb565b5b018054610ed590611ff5565b80601f0160208091040260200160405190810160405280929190818152602001828054610f0190611ff5565b8015610f4e5780601f10610f2357610100808354040283529160200191610f4e565b820191906000526020600020905b815481529060010190602001808311610f3157829003601f168201915b5050505050838381518110610f6657610f656121cb565b5b6020026020010181905250508080600101915050610de0565b5080838396509650965050505050909192565b600560009054906101000a900473ffffffffffffffffffffffffffffffffffffffff1673ffffffffffffffffffffffffffffffffffffffff163373ffffffffffffffffffffffffffffffffffffffff16148061103b5750600660009054906101000a900473ffffffffffffffffffffffffffffffffffffffff1673ffffffffffffffffffffffffffffffffffffffff163373ffffffffffffffffffffffffffffffffffffffff16145b6040518060600160405280603881526020016122fc6038913990611095576040517f08c379a000000000000000000000000000000000000000000000000000000000815260040161108c9190611900565b60405180910390fd5b506000601c836040516110a89190612062565b908152602001604051809103902060009054906101000a900473ffffffffffffffffffffffffffffffffffffffff169050600073ffffffffffffffffffffffffffffffffffffffff168173ffffffffffffffffffffffffffffffffffffffff1614156040518060600160405280603681526020016123346036913990611164576040517f08c379a000000000000000000000000000000000000000000000000000000000815260040161115b9190611900565b60405180910390fd5b506000670de0b6b3a76400008361117b91906120a8565b905061118782826113f2565b7f1fb22019789732eae1f9274664ab21c768f1e37e3782d8f5b620d139aac293b48285836040516111ba9392919061218d565b60405180910390a150505050565b6000600160008473ffffffffffffffffffffffffffffffffffffffff1673ffffffffffffffffffffffffffffffffffffffff16815260200190815260200160002060008373ffffffffffffffffffffffffffffffffffffffff1673ffffffffffffffffffffffffffffffffffffffff16815260200190815260200160002054905092915050565b600033905090565b6112648383836001611474565b505050565b600061127584846111c8565b90507fffffffffffffffffffffffffffffffffffffffffffffffffffffffffffffffff8110156112f857818110156112e8578281836040517ffb8f41b20000000000000000000000000000000000000000000000000000000081526004016112df939291906122a9565b60405180910390fd5b6112f784848484036000611474565b5b50505050565b600073ffffffffffffffffffffffffffffffffffffffff168373ffffffffffffffffffffffffffffffffffffffff16036113705760006040517f96c6fd1e00000000000000000000000000000000000000000000000000000000815260040161136791906122e0565b60405180910390fd5b600073ffffffffffffffffffffffffffffffffffffffff168273ffffffffffffffffffffffffffffffffffffffff16036113e25760006040517fec442f050000000000000000000000000000000000000000000000000000000081526004016113d991906122e0565b60405180910390fd5b6113ed83838361164b565b505050565b600073ffffffffffffffffffffffffffffffffffffffff168273ffffffffffffffffffffffffffffffffffffffff16036114645760006040517fec442f0500000000000000000000000000000000000000000000000000000000815260040161145b91906122e0565b60405180910390fd5b6114706000838361164b565b5050565b600073ffffffffffffffffffffffffffffffffffffffff168473ffffffffffffffffffffffffffffffffffffffff16036114e65760006040517fe602df050000000000000000000000000000000000000000000000000000000081526004016114dd91906122e0565b60405180910390fd5b600073ffffffffffffffffffffffffffffffffffffffff168373ffffffffffffffffffffffffffffffffffffffff16036115585760006040517f94280d6200000000000000000000000000000000000000000000000000000000815260040161154f91906122e0565b60405180910390fd5b81600160008673ffffffffffffffffffffffffffffffffffffffff1673ffffffffffffffffffffffffffffffffffffffff16815260200190815260200160002060008573ffffffffffffffffffffffffffffffffffffffff1673ffffffffffffffffffffffffffffffffffffffff168152602001908152602001600020819055508015611645578273ffffffffffffffffffffffffffffffffffffffff168473ffffffffffffffffffffffffffffffffffffffff167f8c5be1e5ebec7d5bd14f71427d1e84f3dd0314c0f7b2291e5b200ac8c7c3b9258460405161163c9190611a4f565b60405180910390a35b50505050565b600073ffffffffffffffffffffffffffffffffffffffff168373ffffffffffffffffffffffffffffffffffffffff160361169d578060026000828254611691919061214a565b92505081905550611770565b60008060008573ffffffffffffffffffffffffffffffffffffffff1673ffffffffffffffffffffffffffffffffffffffff16815260200190815260200160002054905081811015611729578381836040517fe450d38c000000000000000000000000000000000000000000000000000000008152600401611720939291906122a9565b60405180910390fd5b8181036000808673ffffffffffffffffffffffffffffffffffffffff1673ffffffffffffffffffffffffffffffffffffffff16815260200190815260200160002081905550505b600073ffffffffffffffffffffffffffffffffffffffff168273ffffffffffffffffffffffffffffffffffffffff16036117b95780600260008282540392505081905550611806565b806000808473ffffffffffffffffffffffffffffffffffffffff1673ffffffffffffffffffffffffffffffffffffffff168152602001908152602001600020600082825401925050819055505b8173ffffffffffffffffffffffffffffffffffffffff168373ffffffffffffffffffffffffffffffffffffffff167fddf252ad1be2c89b69c2b068fc378daa952ba7f163c4a11628f55a4df523b3ef836040516118639190611a4f565b60405180910390a3505050565b600081519050919050565b600082825260208201905092915050565b60005b838110156118aa57808201518184015260208101905061188f565b60008484015250505050565b6000601f19601f8301169050919050565b60006118d282611870565b6118dc818561187b565b93506118ec81856020860161188c565b6118f5816118b6565b840191505092915050565b6000602082019050818103600083015261191a81846118c7565b905092915050565b6000604051905090565b600080fd5b600080fd5b600073ffffffffffffffffffffffffffffffffffffffff82169050919050565b600061196182611936565b9050919050565b61197181611956565b811461197c57600080fd5b50565b60008135905061198e81611968565b92915050565b6000819050919050565b6119a781611994565b81146119b257600080fd5b50565b6000813590506119c48161199e565b92915050565b600080604083850312156119e1576119e061192c565b5b60006119ef8582860161197f565b9250506020611a00858286016119b5565b9150509250929050565b60008115159050919050565b611a1f81611a0a565b82525050565b6000602082019050611a3a6000830184611a16565b92915050565b611a4981611994565b82525050565b6000602082019050611a646000830184611a40565b92915050565b600080600060608486031215611a8357611a8261192c565b5b6000611a918682870161197f565b9350506020611aa28682870161197f565b9250506040611ab3868287016119b5565b9150509250925092565b600060ff82169050919050565b611ad381611abd565b82525050565b6000602082019050611aee6000830184611aca565b92915050565b600060208284031215611b0a57611b0961192c565b5b6000611b188482850161197f565b91505092915050565b600080fd5b600080fd5b7f4e487b7100000000000000000000000000000000000000000000000000000000600052604160045260246000fd5b611b63826118b6565b810181811067ffffffffffffffff82111715611b8257611b81611b2b565b5b80604052505050565b6000611b95611922565b9050611ba18282611b5a565b919050565b600067ffffffffffffffff821115611bc157611bc0611b2b565b5b611bca826118b6565b9050602081019050919050565b82818337600083830152505050565b6000611bf9611bf484611ba6565b611b8b565b905082815260208101848484011115611c1557611c14611b26565b5b611c20848285611bd7565b509392505050565b600082601f830112611c3d57611c3c611b21565b5b8135611c4d848260208601611be6565b91505092915050565b60008060408385031215611c6d57611c6c61192c565b5b600083013567ffffffffffffffff811115611c8b57611c8a611931565b5b611c9785828601611c28565b9250506020611ca8858286016119b5565b9150509250929050565b600081519050919050565b600082825260208201905092915050565b6000819050602082019050919050565b600082825260208201905092915050565b6000611cfa82611870565b611d048185611cde565b9350611d1481856020860161188c565b611d1d816118b6565b840191505092915050565b6000611d348383611cef565b905092915050565b6000602082019050919050565b6000611d5482611cb2565b611d5e8185611cbd565b935083602082028501611d7085611cce565b8060005b85811015611dac5784840389528151611d8d8582611d28565b9450611d9883611d3c565b925060208a01995050600181019050611d74565b50829750879550505050505092915050565b600081519050919050565b600082825260208201905092915050565b6000819050602082019050919050565b611df381611956565b82525050565b6000611e058383611dea565b60208301905092915050565b6000602082019050919050565b6000611e2982611dbe565b611e338185611dc9565b9350611e3e83611dda565b8060005b83811015611e6f578151611e568882611df9565b9750611e6183611e11565b925050600181019050611e42565b5085935050505092915050565b600081519050919050565b600082825260208201905092915050565b6000819050602082019050919050565b611eb181611994565b82525050565b6000611ec38383611ea8565b60208301905092915050565b6000602082019050919050565b6000611ee782611e7c565b611ef18185611e87565b9350611efc83611e98565b8060005b83811015611f2d578151611f148882611eb7565b9750611f1f83611ecf565b925050600181019050611f00565b5085935050505092915050565b60006060820190508181036000830152611f548186611d49565b90508181036020830152611f688185611e1e565b90508181036040830152611f7c8184611edc565b9050949350505050565b60008060408385031215611f9d57611f9c61192c565b5b6000611fab8582860161197f565b9250506020611fbc8582860161197f565b9150509250929050565b7f4e487b7100000000000000000000000000000000000000000000000000000000600052602260045260246000fd5b6000600282049050600182168061200d57607f821691505b6020821081036120205761201f611fc6565b5b50919050565b600081905092915050565b600061203c82611870565b6120468185612026565b935061205681856020860161188c565b80840191505092915050565b600061206e8284612031565b915081905092915050565b7f4e487b7100000000000000000000000000000000000000000000000000000000600052601160045260246000fd5b60006120b382611994565b91506120be83611994565b92508282026120cc81611994565b915082820484148315176120e3576120e2612079565b5b5092915050565b7f4e487b7100000000000000000000000000000000000000000000000000000000600052601260045260246000fd5b600061212482611994565b915061212f83611994565b92508261213f5761213e6120ea565b5b828204905092915050565b600061215582611994565b915061216083611994565b925082820190508082111561217857612177612079565b5b92915050565b61218781611956565b82525050565b60006060820190506121a2600083018661217e565b81810360208301526121b481856118c7565b90506121c36040830184611a40565b949350505050565b7f4e487b7100000000000000000000000000000000000000000000000000000000600052603260045260246000fd5b60008190508160005260206000209050919050565b6000815461221c81611ff5565b6122268186612026565b94506001821660008114612241576001811461225657612289565b60ff1983168652811515820286019350612289565b61225f856121fa565b60005b8381101561228157815481890152600182019150602081019050612262565b838801955050505b50505092915050565b600061229e828461220f565b915081905092915050565b60006060820190506122be600083018661217e565b6122cb6020830185611a40565b6122d86040830184611a40565b949350505050565b60006020820190506122f5600083018461217e565b9291505056fe4170656e6173206f206f776e6572206f7520612070726f666573736f726120706f64656d2065786563757461722065737461206163616f2e4163616f20696e76616c6964613a206f20636f64696e6f6d65206e616f20656820646520756d207573756172696f2076616c69646f2e5573756172696f206e616f206175746f72697a61646f20612065786563757461722065737461206163616f2e4120766f746163616f20657374612064657361746976616461206e6f206d6f6d656e746f2e566f746f20696e76616c69646f3a206e616f206568207065726d697469646f20766f74617220647561732076657a6573206e6f206d65736d6f2063616e64696461746f2e4c696d69746520657863656469646f3a206f206d6178696d6f207065726d697469646f206568203220547572696e67732e566f6365206a61207574696c697a6f7520746f646f73206f73207365757320766f746f7320646973706f6e69766569732ea26469706673582212200580875fe3a9f35d8f19e891e90eec531516cce9805e0b3760e7d1af0c1d11a164736f6c634300081c0033",
  "linkReferences": {},
  "deployedLinkReferences": {}
}