{
  "_format": "hh-sol-artifact-1",
  "contractName": "Turing",
  "sourceName": "contracts/Turing.sol",
  "abi": [
    {
      "inputs": [],
      "stateMutability": "nonpayable",
      "type": "constructor"
    },
    {
      "inputs": [
        {
          "internalType": "address",
          "name": "spender",
          "type": "address"
        },
        {
          "internalType": "uint256",
          "name": "allowance",
          "type": "uint256"
        },
        {
          "internalType": "uint256",
          "name": "needed",
          "type": "uint256"
        }
      ],
      "name": "ERC20InsufficientAllowance",
      "type": "error"
    },
    {
      "inputs": [
        {
          "internalType": "address",
          "name": "sender",
          "type": "address"
        },
        {
          "internalType": "uint256",
          "name": "balance",
          "type": "uint256"
        },
        {
          "internalType": "uint256",
          "name": "needed",
          "type": "uint256"
        }
      ],
      "name": "ERC20InsufficientBalance",
      "type": "error"
    },
    {
      "inputs": [
        {
          "internalType": "address",
          "name": "approver",
          "type": "address"
        }
      ],
      "name": "ERC20InvalidApprover",
      "type": "error"
    },
    {
      "inputs": [
        {
          "internalType": "address",
          "name": "receiver",
          "type": "address"
        }
      ],
      "name": "ERC20InvalidReceiver",
      "type": "error"
    },
    {
      "inputs": [
        {
          "internalType": "address",
          "name": "sender",
          "type": "address"
        }
      ],
      "name": "ERC20InvalidSender",
      "type": "error"
    },
    {
      "inputs": [
        {
          "internalType": "address",
          "name": "spender",
          "type": "address"
        }
      ],
      "name": "ERC20InvalidSpender",
      "type": "error"
    },
    {
      "anonymous": false,
      "inputs": [
        {
          "indexed": true,
          "internalType": "address",
          "name": "owner",
          "type": "address"
        },
        {
          "indexed": true,
          "internalType": "address",
          "name": "spender",
          "type": "address"
        },
        {
          "indexed": false,
          "internalType": "uint256",
          "name": "value",
          "type": "uint256"
        }
      ],
      "name": "Approval",
      "type": "event"
    },
    {
      "anonymous": false,
      "inputs": [
        {
          "indexed": false,
          "internalType": "address",
          "name": "recipient",
          "type": "address"
        },
        {
          "indexed": false,
          "internalType": "string",
          "name": "codename",
          "type": "string"
        },
        {
          "indexed": false,
          "internalType": "uint256",
          "name": "amount",
          "type": "uint256"
        }
      ],
      "name": "IssueTokenCast",
      "type": "event"
    },
    {
      "anonymous": false,
      "inputs": [
        {
          "indexed": true,
          "internalType": "address",
          "name": "from",
          "type": "address"
        },
        {
          "indexed": true,
          "internalType": "address",
          "name": "to",
          "type": "address"
        },
        {
          "indexed": false,
          "internalType": "uint256",
          "name": "value",
          "type": "uint256"
        }
      ],
      "name": "Transfer",
      "type": "event"
    },
    {
      "anonymous": false,
      "inputs": [
        {
          "indexed": false,
          "internalType": "address",
          "name": "recipient",
          "type": "address"
        },
        {
          "indexed": false,
          "internalType": "string",
          "name": "codename",
          "type": "string"
        },
        {
          "indexed": false,
          "internalType": "uint256",
          "name": "amount",
          "type": "uint256"
        }
      ],
      "name": "VoteCast",
      "type": "event"
    },
    {
      "inputs": [
        {
          "internalType": "address",
          "name": "owner",
          "type": "address"
        },
        {
          "internalType": "address",
          "name": "spender",
          "type": "address"
        }
      ],
      "name": "allowance",
      "outputs": [
        {
          "internalType": "uint256",
          "name": "",
          "type": "uint256"
        }
      ],
      "stateMutability": "view",
      "type": "function"
    },
    {
      "inputs": [
        {
          "internalType": "address",
          "name": "spender",
          "type": "address"
        },
        {
          "internalType": "uint256",
          "name": "value",
          "type": "uint256"
        }
      ],
      "name": "approve",
      "outputs": [
        {
          "internalType": "bool",
          "name": "",
          "type": "bool"
        }
      ],
      "stateMutability": "nonpayable",
      "type": "function"
    },
    {
      "inputs": [
        {
          "internalType": "address",
          "name": "account",
          "type": "address"
        }
      ],
      "name": "balanceOf",
      "outputs": [
        {
          "internalType": "uint256",
          "name": "",
          "type": "uint256"
        }
      ],
      "stateMutability": "view",
      "type": "function"
    },
    {
      "inputs": [],
      "name": "decimals",
      "outputs": [
        {
          "internalType": "uint8",
          "name": "",
          "type": "uint8"
        }
      ],
      "stateMutability": "view",
      "type": "function"
    },
    {
      "inputs": [],
      "name": "getAddressesAndBalances",
      "outputs": [
        {
          "internalType": "string[]",
          "name": "",
          "type": "string[]"
        },
        {
          "internalType": "address[]",
          "name": "",
          "type": "address[]"
        },
        {
          "internalType": "uint256[]",
          "name": "",
          "type": "uint256[]"
        }
      ],
      "stateMutability": "view",
      "type": "function"
    },
    {
      "inputs": [
        {
          "internalType": "string",
          "name": "codename",
          "type": "string"
        },
        {
          "internalType": "uint256",
          "name": "qtd",
          "type": "uint256"
        }
      ],
      "name": "issueToken",
      "outputs": [],
      "stateMutability": "nonpayable",
      "type": "function"
    },
    {
      "inputs": [],
      "name": "name",
      "outputs": [
        {
          "internalType": "string",
          "name": "",
          "type": "string"
        }
      ],
      "stateMutability": "view",
      "type": "function"
    },
    {
      "inputs": [],
      "name": "symbol",
      "outputs": [
        {
          "internalType": "string",
          "name": "",
          "type": "string"
        }
      ],
      "stateMutability": "view",
      "type": "function"
    },
    {
      "inputs": [],
      "name": "totalSupply",
      "outputs": [
        {
          "internalType": "uint256",
          "name": "",
          "type": "uint256"
        }
      ],
      "stateMutability": "view",
      "type": "function"
    },
    {
      "inputs": [
        {
          "internalType": "address",
          "name": "to",
          "type": "address"
        },
        {
          "internalType": "uint256",
          "name": "value",
          "type": "uint256"
        }
      ],
      "name": "transfer",
      "outputs": [
        {
          "internalType": "bool",
          "name": "",
          "type": "bool"
        }
      ],
      "stateMutability": "nonpayable",
      "type": "function"
    },
    {
      "inputs": [
        {
          "internalType": "address",
          "name": "from",
          "type": "address"
        },
        {
          "internalType": "address",
          "name": "to",
          "type": "address"
        },
        {
          "internalType": "uint256",
          "name": "value",
          "type": "uint256"
        }
      ],
      "name": "transferFrom",
      "outputs": [
        {
          "internalType": "bool",
          "name": "",
          "type": "bool"
        }
      ],
      "stateMutability": "nonpayable",
      "type": "function"
    },
    {
      "inputs": [
        {
          "internalType": "string",
          "name": "codename",
          "type": "string"
        },
        {
          "internalType": "uint256",
          "name": "qtd",
          "type": "uint256"
        }
      ],
      "name": "vote",
      "outputs": [],
      "stateMutability": "nonpayable",
      "type": "function"
    },
    {
      "inputs": [],
      "name": "votingOff",
      "outputs": [],
      "stateMutability": "nonpayable",
      "type": "function"
    },
    {
      "inputs": [],
      "name": "votingOn",
      "outputs": [],
      "stateMutability": "nonpayable",
      "type": "function"
    }
  ],
  "bytecode": "0x608060405234801561001057600080fd5b506040518060400160405280600c81526020017f547572696e6720546f6b656e00000000000000000000000000000000000000008152506040518060400160405280600381526020017f5455520000000000000000000000000000000000000000000000000000000000815250816003908161008c9190610f1b565b50806004908161009c9190610f1b565b5050507370997970c51812dc3a010c7d01b50e0d17dc79c8600660006101000a81548173ffffffffffffffffffffffffffffffffffffffff021916908373ffffffffffffffffffffffffffffffffffffffff16021790555033600560006101000a81548173ffffffffffffffffffffffffffffffffffffffff021916908373ffffffffffffffffffffffffffffffffffffffff1602179055506001600660146101000a81548160ff0219169083151502179055506040518061024001604052806040518060400160405280600581526020017f6e6f6d653100000000000000000000000000000000000000000000000000000081525081526020016040518060400160405280600581526020017f6e6f6d653200000000000000000000000000000000000000000000000000000081525081526020016040518060400160405280600581526020017f6e6f6d653300000000000000000000000000000000000000000000000000000081525081526020016040518060400160405280600581526020017f6e6f6d653400000000000000000000000000000000000000000000000000000081525081526020016040518060400160405280600581526020017f6e6f6d653500000000000000000000000000000000000000000000000000000081525081526020016040518060400160405280600581526020017f6e6f6d653600000000000000000000000000000000000000000000000000000081525081526020016040518060400160405280600581526020017f6e6f6d653700000000000000000000000000000000000000000000000000000081525081526020016040518060400160405280600581526020017f6e6f6d653800000000000000000000000000000000000000000000000000000081525081526020016040518060400160405280600581526020017f6e6f6d653900000000000000000000000000000000000000000000000000000081525081526020016040518060400160405280600681526020017f6e6f6d653130000000000000000000000000000000000000000000000000000081525081526020016040518060400160405280600681526020017f6e6f6d653131000000000000000000000000000000000000000000000000000081525081526020016040518060400160405280600681526020017f6e6f6d653132000000000000000000000000000000000000000000000000000081525081526020016040518060400160405280600681526020017f6e6f6d653133000000000000000000000000000000000000000000000000000081525081526020016040518060400160405280600681526020017f6e6f6d653134000000000000000000000000000000000000000000000000000081525081526020016040518060400160405280600681526020017f6e6f6d653135000000000000000000000000000000000000000000000000000081525081526020016040518060400160405280600681526020017f6e6f6d653136000000000000000000000000000000000000000000000000000081525081526020016040518060400160405280600681526020017f6e6f6d653137000000000000000000000000000000000000000000000000000081525081526020016040518060400160405280600681526020017f6e6f6d65313800000000000000000000000000000000000000000000000000008152508152506007906012610590929190610bfe565b506000604051806102400160405280733c44cdddb6a900fa2b585dd299e03d12fa4293bc73ffffffffffffffffffffffffffffffffffffffff1673ffffffffffffffffffffffffffffffffffffffff1681526020017390f79bf6eb2c4f870365e785982e1f101e93b90673ffffffffffffffffffffffffffffffffffffffff1673ffffffffffffffffffffffffffffffffffffffff1681526020017315d34aaf54267db7d7c367839aaf71a00a2c6a6573ffffffffffffffffffffffffffffffffffffffff1673ffffffffffffffffffffffffffffffffffffffff168152602001739965507d1a55bcc2695c58ba16fb37d819b0a4dc73ffffffffffffffffffffffffffffffffffffffff1673ffffffffffffffffffffffffffffffffffffffff16815260200173976ea74026e726554db657fa54763abd0c3a0aa973ffffffffffffffffffffffffffffffffffffffff1673ffffffffffffffffffffffffffffffffffffffff1681526020017314dc79964da2c08b23698b3d3cc7ca32193d995573ffffffffffffffffffffffffffffffffffffffff1673ffffffffffffffffffffffffffffffffffffffff1681526020017323618e81e3f5cdf7f54c3d65f7fbc0abf5b21e8f73ffffffffffffffffffffffffffffffffffffffff1673ffffffffffffffffffffffffffffffffffffffff16815260200173a0ee7a142d267c1f36714e4a8f75612f20a7972073ffffffffffffffffffffffffffffffffffffffff1673ffffffffffffffffffffffffffffffffffffffff16815260200173bcd4042de499d14e55001ccbb24a551f3b95409673ffffffffffffffffffffffffffffffffffffffff1673ffffffffffffffffffffffffffffffffffffffff1681526020017371be63f3384f5fb98995898a86b02fb2426c578873ffffffffffffffffffffffffffffffffffffffff1673ffffffffffffffffffffffffffffffffffffffff16815260200173fabb0ac9d68b0b445fb7357272ff202c5651694a73ffffffffffffffffffffffffffffffffffffffff1673ffffffffffffffffffffffffffffffffffffffff168152602001731cbd3b2770909d4e10f157cabc84c7264073c9ec73ffffffffffffffffffffffffffffffffffffffff1673ffffffffffffffffffffffffffffffffffffffff16815260200173df3e18d64bc6a983f673ab319ccae4f1a57c709773ffffffffffffffffffffffffffffffffffffffff1673ffffffffffffffffffffffffffffffffffffffff16815260200173cd3b766ccdd6ae721141f452c550ca635964ce7173ffffffffffffffffffffffffffffffffffffffff1673ffffffffffffffffffffffffffffffffffffffff168152602001732546bcd3c84621e976d8185a91a922ae77ecec3073ffffffffffffffffffffffffffffffffffffffff1673ffffffffffffffffffffffffffffffffffffffff16815260200173bda5747bfd65f08deb54cb465eb87d40e51b197e73ffffffffffffffffffffffffffffffffffffffff1673ffffffffffffffffffffffffffffffffffffffff16815260200173dd2fd4581271e230360230f9337d5c0430bf44c073ffffffffffffffffffffffffffffffffffffffff1673ffffffffffffffffffffffffffffffffffffffff168152602001738626f6940e2eb28930efb4cef49b2d1f2c9c119973ffffffffffffffffffffffffffffffffffffffff1673ffffffffffffffffffffffffffffffffffffffff16815250905060005b6012811015610bf757600160196000848460128110610ab057610aaf610fed565b5b602002015173ffffffffffffffffffffffffffffffffffffffff1673ffffffffffffffffffffffffffffffffffffffff16815260200190815260200160002060006101000a81548160ff021916908315150217905550818160128110610b1957610b18610fed565b5b6020020151601a60078360128110610b3457610b33610fed565b5b01604051610b4291906110aa565b908152602001604051809103902060006101000a81548173ffffffffffffffffffffffffffffffffffffffff021916908373ffffffffffffffffffffffffffffffffffffffff1602179055506000601b6000848460128110610ba757610ba6610fed565b5b602002015173ffffffffffffffffffffffffffffffffffffffff1673ffffffffffffffffffffffffffffffffffffffff168152602001908152602001600020819055508080600101915050610a8e565b50506110c1565b8260128101928215610c39579160200282015b82811115610c38578251829081610c289190610f1b565b5091602001919060010190610c11565b5b509050610c469190610c4a565b5090565b5b80821115610c6a5760008181610c619190610c6e565b50600101610c4b565b5090565b508054610c7a90610d34565b6000825580601f10610c8c5750610cab565b601f016020900490600052602060002090810190610caa9190610cae565b5b50565b5b80821115610cc7576000816000905550600101610caf565b5090565b600081519050919050565b7f4e487b7100000000000000000000000000000000000000000000000000000000600052604160045260246000fd5b7f4e487b7100000000000000000000000000000000000000000000000000000000600052602260045260246000fd5b60006002820490506001821680610d4c57607f821691505b602082108103610d5f57610d5e610d05565b5b50919050565b60008190508160005260206000209050919050565b60006020601f8301049050919050565b600082821b905092915050565b600060088302610dc77fffffffffffffffffffffffffffffffffffffffffffffffffffffffffffffffff82610d8a565b610dd18683610d8a565b95508019841693508086168417925050509392505050565b6000819050919050565b6000819050919050565b6000610e18610e13610e0e84610de9565b610df3565b610de9565b9050919050565b6000819050919050565b610e3283610dfd565b610e46610e3e82610e1f565b848454610d97565b825550505050565b600090565b610e5b610e4e565b610e66818484610e29565b505050565b5b81811015610e8a57610e7f600082610e53565b600181019050610e6c565b5050565b601f821115610ecf57610ea081610d65565b610ea984610d7a565b81016020851015610eb8578190505b610ecc610ec485610d7a565b830182610e6b565b50505b505050565b600082821c905092915050565b6000610ef260001984600802610ed4565b1980831691505092915050565b6000610f0b8383610ee1565b9150826002028217905092915050565b610f2482610ccb565b67ffffffffffffffff811115610f3d57610f3c610cd6565b5b610f478254610d34565b610f52828285610e8e565b600060209050601f831160018114610f855760008415610f73578287015190505b610f7d8582610eff565b865550610fe5565b601f198416610f9386610d65565b60005b82811015610fbb57848901518255600182019150602085019450602081019050610f96565b86831015610fd85784890151610fd4601f891682610ee1565b8355505b6001600288020188555050505b505050505050565b7f4e487b7100000000000000000000000000000000000000000000000000000000600052603260045260246000fd5b600081905092915050565b6000815461103481610d34565b61103e818661101c565b94506001821660008114611059576001811461106e576110a1565b60ff19831686528115158202860193506110a1565b61107785610d65565b60005b838110156110995781548189015260018201915060208101905061107a565b838801955050505b50505092915050565b60006110b68284611027565b915081905092915050565b6124ec806110d06000396000f3fe608060405234801561001057600080fd5b50600436106100ea5760003560e01c806370a082311161008c578063a9059cbb11610066578063a9059cbb14610227578063b774224514610257578063c683e0f414610277578063dd62ed3e14610293576100ea565b806370a08231146101bd57806395d89b41146101ed578063a63858031461020b576100ea565b806320949bb4116100c857806320949bb41461015b57806323b872dd14610165578063313ce5671461019557806360a3ae06146101b3576100ea565b806306fdde03146100ef578063095ea7b31461010d57806318160ddd1461013d575b600080fd5b6100f76102c3565b6040516101049190611958565b60405180910390f35b61012760048036038101906101229190611a22565b610355565b6040516101349190611a7d565b60405180910390f35b610145610378565b6040516101529190611aa7565b60405180910390f35b610163610382565b005b61017f600480360381019061017a9190611ac2565b6104a3565b60405161018c9190611a7d565b60405180910390f35b61019d6104d2565b6040516101aa9190611b31565b60405180910390f35b6101bb6104db565b005b6101d760048036038101906101d29190611b4c565b6105fc565b6040516101e49190611aa7565b60405180910390f35b6101f5610644565b6040516102029190611958565b60405180910390f35b61022560048036038101906102209190611cae565b6106d6565b005b610241600480360381019061023c9190611a22565b610d1b565b60405161024e9190611a7d565b60405180910390f35b61025f610d3e565b60405161026e93929190611f92565b60405180910390f35b610291600480360381019061028c9190611cae565b610fea565b005b6102ad60048036038101906102a89190611fde565b611220565b6040516102ba9190611aa7565b60405180910390f35b6060600380546102d29061204d565b80601f01602080910402602001604051908101604052809291908181526020018280546102fe9061204d565b801561034b5780601f106103205761010080835404028352916020019161034b565b820191906000526020600020905b81548152906001019060200180831161032e57829003601f168201915b5050505050905090565b6000806103606112a7565b905061036d8185856112af565b600191505092915050565b6000600254905090565b600560009054906101000a900473ffffffffffffffffffffffffffffffffffffffff1673ffffffffffffffffffffffffffffffffffffffff163373ffffffffffffffffffffffffffffffffffffffff16148061042b5750600660009054906101000a900473ffffffffffffffffffffffffffffffffffffffff1673ffffffffffffffffffffffffffffffffffffffff163373ffffffffffffffffffffffffffffffffffffffff16145b6040518060600160405280603881526020016123546038913990610485576040517f08c379a000000000000000000000000000000000000000000000000000000000815260040161047c9190611958565b60405180910390fd5b506001600660146101000a81548160ff021916908315150217905550565b6000806104ae6112a7565b90506104bb8582856112c1565b6104c6858585611356565b60019150509392505050565b60006012905090565b600560009054906101000a900473ffffffffffffffffffffffffffffffffffffffff1673ffffffffffffffffffffffffffffffffffffffff163373ffffffffffffffffffffffffffffffffffffffff1614806105845750600660009054906101000a900473ffffffffffffffffffffffffffffffffffffffff1673ffffffffffffffffffffffffffffffffffffffff163373ffffffffffffffffffffffffffffffffffffffff16145b60405180606001604052806038815260200161235460389139906105de576040517f08c379a00000000000000000000000000000000000000000000000000000000081526004016105d59190611958565b60405180910390fd5b506000600660146101000a81548160ff021916908315150217905550565b60008060008373ffffffffffffffffffffffffffffffffffffffff1673ffffffffffffffffffffffffffffffffffffffff168152602001908152602001600020549050919050565b6060600480546106539061204d565b80601f016020809104026020016040519081016040528092919081815260200182805461067f9061204d565b80156106cc5780601f106106a1576101008083540402835291602001916106cc565b820191906000526020600020905b8154815290600101906020018083116106af57829003601f168201915b5050505050905090565b60011515601960003373ffffffffffffffffffffffffffffffffffffffff1673ffffffffffffffffffffffffffffffffffffffff16815260200190815260200160002060009054906101000a900460ff16151514806107825750600560009054906101000a900473ffffffffffffffffffffffffffffffffffffffff1673ffffffffffffffffffffffffffffffffffffffff163373ffffffffffffffffffffffffffffffffffffffff16145b6040518060600160405280602c81526020016123c2602c9139906107dc576040517f08c379a00000000000000000000000000000000000000000000000000000000081526004016107d39190611958565b60405180910390fd5b50600660149054906101000a900460ff166040518060600160405280602581526020016123ee6025913990610847576040517f08c379a000000000000000000000000000000000000000000000000000000000815260040161083e9190611958565b60405180910390fd5b506002601b60003373ffffffffffffffffffffffffffffffffffffffff1673ffffffffffffffffffffffffffffffffffffffff168152602001908152602001600020541060405180606001604052806031815260200161245660319139906108e5576040517f08c379a00000000000000000000000000000000000000000000000000000000081526004016108dc9190611958565b60405180910390fd5b506000601a836040516108f891906120ba565b908152602001604051809103902060009054906101000a900473ffffffffffffffffffffffffffffffffffffffff169050600073ffffffffffffffffffffffffffffffffffffffff168173ffffffffffffffffffffffffffffffffffffffff16141560405180606001604052806036815260200161238c60369139906109b4576040517f08c379a00000000000000000000000000000000000000000000000000000000081526004016109ab9190611958565b60405180910390fd5b503373ffffffffffffffffffffffffffffffffffffffff168173ffffffffffffffffffffffffffffffffffffffff1614156040518060400160405280602081526020017f566f6365206e616f20706f646520766f74617220656d207369206d65736d6f2e81525090610a5c576040517f08c379a0000000000000000000000000000000000000000000000000000000008152600401610a539190611958565b60405180910390fd5b50601c60003373ffffffffffffffffffffffffffffffffffffffff1673ffffffffffffffffffffffffffffffffffffffff16815260200190815260200160002060008273ffffffffffffffffffffffffffffffffffffffff1673ffffffffffffffffffffffffffffffffffffffff16815260200190815260200160002060009054906101000a900460ff16156040518060800160405280604381526020016124136043913990610b42576040517f08c379a0000000000000000000000000000000000000000000000000000000008152600401610b399190611958565b60405180910390fd5b506000670de0b6b3a764000083610b599190612100565b9050670de0b6b3a76400006002610b709190612100565b8111156040518060600160405280603081526020016124876030913990610bcd576040517f08c379a0000000000000000000000000000000000000000000000000000000008152600401610bc49190611958565b60405180910390fd5b50610bd8828261144a565b610bee33600583610be99190612171565b61144a565b6001601b60003373ffffffffffffffffffffffffffffffffffffffff1673ffffffffffffffffffffffffffffffffffffffff1681526020019081526020016000206000828254610c3e91906121a2565b925050819055506001601c60003373ffffffffffffffffffffffffffffffffffffffff1673ffffffffffffffffffffffffffffffffffffffff16815260200190815260200160002060008473ffffffffffffffffffffffffffffffffffffffff1673ffffffffffffffffffffffffffffffffffffffff16815260200190815260200160002060006101000a81548160ff0219169083151502179055507f1fb22019789732eae1f9274664ab21c768f1e37e3782d8f5b620d139aac293b4828583604051610d0d939291906121e5565b60405180910390a150505050565b600080610d266112a7565b9050610d33818585611356565b600191505092915050565b606080606060006012905060008167ffffffffffffffff811115610d6557610d64611b83565b5b604051908082528060200260200182016040528015610d935781602001602082028036833780820191505090505b50905060008267ffffffffffffffff811115610db257610db1611b83565b5b604051908082528060200260200182016040528015610de05781602001602082028036833780820191505090505b50905060008367ffffffffffffffff811115610dff57610dfe611b83565b5b604051908082528060200260200182016040528015610e3257816020015b6060815260200190600190039081610e1d5790505b50905060005b84811015610fd7576000601a60078360128110610e5857610e57612223565b5b01604051610e6691906122ea565b908152602001604051809103902060009054906101000a900473ffffffffffffffffffffffffffffffffffffffff16905080858381518110610eab57610eaa612223565b5b602002602001019073ffffffffffffffffffffffffffffffffffffffff16908173ffffffffffffffffffffffffffffffffffffffff1681525050610eee816105fc565b848381518110610f0157610f00612223565b5b60200260200101818152505060078260128110610f2157610f20612223565b5b018054610f2d9061204d565b80601f0160208091040260200160405190810160405280929190818152602001828054610f599061204d565b8015610fa65780601f10610f7b57610100808354040283529160200191610fa6565b820191906000526020600020905b815481529060010190602001808311610f8957829003601f168201915b5050505050838381518110610fbe57610fbd612223565b5b6020026020010181905250508080600101915050610e38565b5080838396509650965050505050909192565b600560009054906101000a900473ffffffffffffffffffffffffffffffffffffffff1673ffffffffffffffffffffffffffffffffffffffff163373ffffffffffffffffffffffffffffffffffffffff1614806110935750600660009054906101000a900473ffffffffffffffffffffffffffffffffffffffff1673ffffffffffffffffffffffffffffffffffffffff163373ffffffffffffffffffffffffffffffffffffffff16145b60405180606001604052806038815260200161235460389139906110ed576040517f08c379a00000000000000000000000000000000000000000000000000000000081526004016110e49190611958565b60405180910390fd5b506000601a8360405161110091906120ba565b908152602001604051809103902060009054906101000a900473ffffffffffffffffffffffffffffffffffffffff169050600073ffffffffffffffffffffffffffffffffffffffff168173ffffffffffffffffffffffffffffffffffffffff16141560405180606001604052806036815260200161238c60369139906111bc576040517f08c379a00000000000000000000000000000000000000000000000000000000081526004016111b39190611958565b60405180910390fd5b506000670de0b6b3a7640000836111d39190612100565b90506111df828261144a565b7f1fb22019789732eae1f9274664ab21c768f1e37e3782d8f5b620d139aac293b4828583604051611212939291906121e5565b60405180910390a150505050565b6000600160008473ffffffffffffffffffffffffffffffffffffffff1673ffffffffffffffffffffffffffffffffffffffff16815260200190815260200160002060008373ffffffffffffffffffffffffffffffffffffffff1673ffffffffffffffffffffffffffffffffffffffff16815260200190815260200160002054905092915050565b600033905090565b6112bc83838360016114cc565b505050565b60006112cd8484611220565b90507fffffffffffffffffffffffffffffffffffffffffffffffffffffffffffffffff8110156113505781811015611340578281836040517ffb8f41b200000000000000000000000000000000000000000000000000000000815260040161133793929190612301565b60405180910390fd5b61134f848484840360006114cc565b5b50505050565b600073ffffffffffffffffffffffffffffffffffffffff168373ffffffffffffffffffffffffffffffffffffffff16036113c85760006040517f96c6fd1e0000000000000000000000000000000000000000000000000000000081526004016113bf9190612338565b60405180910390fd5b600073ffffffffffffffffffffffffffffffffffffffff168273ffffffffffffffffffffffffffffffffffffffff160361143a5760006040517fec442f050000000000000000000000000000000000000000000000000000000081526004016114319190612338565b60405180910390fd5b6114458383836116a3565b505050565b600073ffffffffffffffffffffffffffffffffffffffff168273ffffffffffffffffffffffffffffffffffffffff16036114bc5760006040517fec442f050000000000000000000000000000000000000000000000000000000081526004016114b39190612338565b60405180910390fd5b6114c8600083836116a3565b5050565b600073ffffffffffffffffffffffffffffffffffffffff168473ffffffffffffffffffffffffffffffffffffffff160361153e5760006040517fe602df050000000000000000000000000000000000000000000000000000000081526004016115359190612338565b60405180910390fd5b600073ffffffffffffffffffffffffffffffffffffffff168373ffffffffffffffffffffffffffffffffffffffff16036115b05760006040517f94280d620000000000000000000000000000000000000000000000000000000081526004016115a79190612338565b60405180910390fd5b81600160008673ffffffffffffffffffffffffffffffffffffffff1673ffffffffffffffffffffffffffffffffffffffff16815260200190815260200160002060008573ffffffffffffffffffffffffffffffffffffffff1673ffffffffffffffffffffffffffffffffffffffff16815260200190815260200160002081905550801561169d578273ffffffffffffffffffffffffffffffffffffffff168473ffffffffffffffffffffffffffffffffffffffff167f8c5be1e5ebec7d5bd14f71427d1e84f3dd0314c0f7b2291e5b200ac8c7c3b925846040516116949190611aa7565b60405180910390a35b50505050565b600073ffffffffffffffffffffffffffffffffffffffff168373ffffffffffffffffffffffffffffffffffffffff16036116f55780600260008282546116e991906121a2565b925050819055506117c8565b60008060008573ffffffffffffffffffffffffffffffffffffffff1673ffffffffffffffffffffffffffffffffffffffff16815260200190815260200160002054905081811015611781578381836040517fe450d38c00000000000000000000000000000000000000000000000000000000815260040161177893929190612301565b60405180910390fd5b8181036000808673ffffffffffffffffffffffffffffffffffffffff1673ffffffffffffffffffffffffffffffffffffffff16815260200190815260200160002081905550505b600073ffffffffffffffffffffffffffffffffffffffff168273ffffffffffffffffffffffffffffffffffffffff1603611811578060026000828254039250508190555061185e565b806000808473ffffffffffffffffffffffffffffffffffffffff1673ffffffffffffffffffffffffffffffffffffffff168152602001908152602001600020600082825401925050819055505b8173ffffffffffffffffffffffffffffffffffffffff168373ffffffffffffffffffffffffffffffffffffffff167fddf252ad1be2c89b69c2b068fc378daa952ba7f163c4a11628f55a4df523b3ef836040516118bb9190611aa7565b60405180910390a3505050565b600081519050919050565b600082825260208201905092915050565b60005b838110156119025780820151818401526020810190506118e7565b60008484015250505050565b6000601f19601f8301169050919050565b600061192a826118c8565b61193481856118d3565b93506119448185602086016118e4565b61194d8161190e565b840191505092915050565b60006020820190508181036000830152611972818461191f565b905092915050565b6000604051905090565b600080fd5b600080fd5b600073ffffffffffffffffffffffffffffffffffffffff82169050919050565b60006119b98261198e565b9050919050565b6119c9816119ae565b81146119d457600080fd5b50565b6000813590506119e6816119c0565b92915050565b6000819050919050565b6119ff816119ec565b8114611a0a57600080fd5b50565b600081359050611a1c816119f6565b92915050565b60008060408385031215611a3957611a38611984565b5b6000611a47858286016119d7565b9250506020611a5885828601611a0d565b9150509250929050565b60008115159050919050565b611a7781611a62565b82525050565b6000602082019050611a926000830184611a6e565b92915050565b611aa1816119ec565b82525050565b6000602082019050611abc6000830184611a98565b92915050565b600080600060608486031215611adb57611ada611984565b5b6000611ae9868287016119d7565b9350506020611afa868287016119d7565b9250506040611b0b86828701611a0d565b9150509250925092565b600060ff82169050919050565b611b2b81611b15565b82525050565b6000602082019050611b466000830184611b22565b92915050565b600060208284031215611b6257611b61611984565b5b6000611b70848285016119d7565b91505092915050565b600080fd5b600080fd5b7f4e487b7100000000000000000000000000000000000000000000000000000000600052604160045260246000fd5b611bbb8261190e565b810181811067ffffffffffffffff82111715611bda57611bd9611b83565b5b80604052505050565b6000611bed61197a565b9050611bf98282611bb2565b919050565b600067ffffffffffffffff821115611c1957611c18611b83565b5b611c228261190e565b9050602081019050919050565b82818337600083830152505050565b6000611c51611c4c84611bfe565b611be3565b905082815260208101848484011115611c6d57611c6c611b7e565b5b611c78848285611c2f565b509392505050565b600082601f830112611c9557611c94611b79565b5b8135611ca5848260208601611c3e565b91505092915050565b60008060408385031215611cc557611cc4611984565b5b600083013567ffffffffffffffff811115611ce357611ce2611989565b5b611cef85828601611c80565b9250506020611d0085828601611a0d565b9150509250929050565b600081519050919050565b600082825260208201905092915050565b6000819050602082019050919050565b600082825260208201905092915050565b6000611d52826118c8565b611d5c8185611d36565b9350611d6c8185602086016118e4565b611d758161190e565b840191505092915050565b6000611d8c8383611d47565b905092915050565b6000602082019050919050565b6000611dac82611d0a565b611db68185611d15565b935083602082028501611dc885611d26565b8060005b85811015611e045784840389528151611de58582611d80565b9450611df083611d94565b925060208a01995050600181019050611dcc565b50829750879550505050505092915050565b600081519050919050565b600082825260208201905092915050565b6000819050602082019050919050565b611e4b816119ae565b82525050565b6000611e5d8383611e42565b60208301905092915050565b6000602082019050919050565b6000611e8182611e16565b611e8b8185611e21565b9350611e9683611e32565b8060005b83811015611ec7578151611eae8882611e51565b9750611eb983611e69565b925050600181019050611e9a565b5085935050505092915050565b600081519050919050565b600082825260208201905092915050565b6000819050602082019050919050565b611f09816119ec565b82525050565b6000611f1b8383611f00565b60208301905092915050565b6000602082019050919050565b6000611f3f82611ed4565b611f498185611edf565b9350611f5483611ef0565b8060005b83811015611f85578151611f6c8882611f0f565b9750611f7783611f27565b925050600181019050611f58565b5085935050505092915050565b60006060820190508181036000830152611fac8186611da1565b90508181036020830152611fc08185611e76565b90508181036040830152611fd48184611f34565b9050949350505050565b60008060408385031215611ff557611ff4611984565b5b6000612003858286016119d7565b9250506020612014858286016119d7565b9150509250929050565b7f4e487b7100000000000000000000000000000000000000000000000000000000600052602260045260246000fd5b6000600282049050600182168061206557607f821691505b6020821081036120785761207761201e565b5b50919050565b600081905092915050565b6000612094826118c8565b61209e818561207e565b93506120ae8185602086016118e4565b80840191505092915050565b60006120c68284612089565b915081905092915050565b7f4e487b7100000000000000000000000000000000000000000000000000000000600052601160045260246000fd5b600061210b826119ec565b9150612116836119ec565b9250828202612124816119ec565b9150828204841483151761213b5761213a6120d1565b5b5092915050565b7f4e487b7100000000000000000000000000000000000000000000000000000000600052601260045260246000fd5b600061217c826119ec565b9150612187836119ec565b92508261219757612196612142565b5b828204905092915050565b60006121ad826119ec565b91506121b8836119ec565b92508282019050808211156121d0576121cf6120d1565b5b92915050565b6121df816119ae565b82525050565b60006060820190506121fa60008301866121d6565b818103602083015261220c818561191f565b905061221b6040830184611a98565b949350505050565b7f4e487b7100000000000000000000000000000000000000000000000000000000600052603260045260246000fd5b60008190508160005260206000209050919050565b600081546122748161204d565b61227e818661207e565b9450600182166000811461229957600181146122ae576122e1565b60ff19831686528115158202860193506122e1565b6122b785612252565b60005b838110156122d9578154818901526001820191506020810190506122ba565b838801955050505b50505092915050565b60006122f68284612267565b915081905092915050565b600060608201905061231660008301866121d6565b6123236020830185611a98565b6123306040830184611a98565b949350505050565b600060208201905061234d60008301846121d6565b9291505056fe4170656e6173206f206f776e6572206f7520612070726f666573736f726120706f64656d2065786563757461722065737461206163616f2e4163616f20696e76616c6964613a206f20636f64696e6f6d65206e616f20656820646520756d207573756172696f2076616c69646f2e5573756172696f206e616f206175746f72697a61646f20612065786563757461722065737461206163616f2e4120766f746163616f20657374612064657361746976616461206e6f206d6f6d656e746f2e566f746f20696e76616c69646f3a206e616f2065207065726d697469646f20766f74617220647561732076657a6573206e6f206d65736d6f2063616e64696461746f2e566f6365206a61207574696c697a6f7520746f646f73206f73207365757320766f746f7320646973706f6e69766569732e4c696d69746520657863656469646f3a206f206d6178696d6f207065726d697469646f2065203220547572696e67732ea264697066735822122077ceffbbab2cc752b2b2e418c18ce5b2a4834c15aa239f41a6a7813fa2cb868764736f6c634300081c0033",
  "linkReferences": {},
  "deployedLinkReferences": {}
}