{
  "_format": "hh-sol-artifact-1",
  "contractName": "Turing",
  "sourceName": "contracts/Turing.sol",
  "abi": [
    {
      "inputs": [],
      "stateMutability": "nonpayable",
      "type": "constructor"
    },
    {
      "inputs": [
        {
          "internalType": "address",
          "name": "spender",
          "type": "address"
        },
        {
          "internalType": "uint256",
          "name": "allowance",
          "type": "uint256"
        },
        {
          "internalType": "uint256",
          "name": "needed",
          "type": "uint256"
        }
      ],
      "name": "ERC20InsufficientAllowance",
      "type": "error"
    },
    {
      "inputs": [
        {
          "internalType": "address",
          "name": "sender",
          "type": "address"
        },
        {
          "internalType": "uint256",
          "name": "balance",
          "type": "uint256"
        },
        {
          "internalType": "uint256",
          "name": "needed",
          "type": "uint256"
        }
      ],
      "name": "ERC20InsufficientBalance",
      "type": "error"
    },
    {
      "inputs": [
        {
          "internalType": "address",
          "name": "approver",
          "type": "address"
        }
      ],
      "name": "ERC20InvalidApprover",
      "type": "error"
    },
    {
      "inputs": [
        {
          "internalType": "address",
          "name": "receiver",
          "type": "address"
        }
      ],
      "name": "ERC20InvalidReceiver",
      "type": "error"
    },
    {
      "inputs": [
        {
          "internalType": "address",
          "name": "sender",
          "type": "address"
        }
      ],
      "name": "ERC20InvalidSender",
      "type": "error"
    },
    {
      "inputs": [
        {
          "internalType": "address",
          "name": "spender",
          "type": "address"
        }
      ],
      "name": "ERC20InvalidSpender",
      "type": "error"
    },
    {
      "anonymous": false,
      "inputs": [
        {
          "indexed": true,
          "internalType": "address",
          "name": "owner",
          "type": "address"
        },
        {
          "indexed": true,
          "internalType": "address",
          "name": "spender",
          "type": "address"
        },
        {
          "indexed": false,
          "internalType": "uint256",
          "name": "value",
          "type": "uint256"
        }
      ],
      "name": "Approval",
      "type": "event"
    },
    {
      "anonymous": false,
      "inputs": [
        {
          "indexed": false,
          "internalType": "address",
          "name": "recipient",
          "type": "address"
        },
        {
          "indexed": false,
          "internalType": "string",
          "name": "codename",
          "type": "string"
        },
        {
          "indexed": false,
          "internalType": "uint256",
          "name": "amount",
          "type": "uint256"
        }
      ],
      "name": "IssueTokenCast",
      "type": "event"
    },
    {
      "anonymous": false,
      "inputs": [
        {
          "indexed": true,
          "internalType": "address",
          "name": "from",
          "type": "address"
        },
        {
          "indexed": true,
          "internalType": "address",
          "name": "to",
          "type": "address"
        },
        {
          "indexed": false,
          "internalType": "uint256",
          "name": "value",
          "type": "uint256"
        }
      ],
      "name": "Transfer",
      "type": "event"
    },
    {
      "anonymous": false,
      "inputs": [
        {
          "indexed": false,
          "internalType": "address",
          "name": "recipient",
          "type": "address"
        },
        {
          "indexed": false,
          "internalType": "string",
          "name": "codename",
          "type": "string"
        },
        {
          "indexed": false,
          "internalType": "uint256",
          "name": "amount",
          "type": "uint256"
        }
      ],
      "name": "VoteCast",
      "type": "event"
    },
    {
      "inputs": [
        {
          "internalType": "address",
          "name": "owner",
          "type": "address"
        },
        {
          "internalType": "address",
          "name": "spender",
          "type": "address"
        }
      ],
      "name": "allowance",
      "outputs": [
        {
          "internalType": "uint256",
          "name": "",
          "type": "uint256"
        }
      ],
      "stateMutability": "view",
      "type": "function"
    },
    {
      "inputs": [
        {
          "internalType": "address",
          "name": "spender",
          "type": "address"
        },
        {
          "internalType": "uint256",
          "name": "value",
          "type": "uint256"
        }
      ],
      "name": "approve",
      "outputs": [
        {
          "internalType": "bool",
          "name": "",
          "type": "bool"
        }
      ],
      "stateMutability": "nonpayable",
      "type": "function"
    },
    {
      "inputs": [
        {
          "internalType": "address",
          "name": "account",
          "type": "address"
        }
      ],
      "name": "balanceOf",
      "outputs": [
        {
          "internalType": "uint256",
          "name": "",
          "type": "uint256"
        }
      ],
      "stateMutability": "view",
      "type": "function"
    },
    {
      "inputs": [
        {
          "internalType": "string",
          "name": "",
          "type": "string"
        }
      ],
      "name": "codenameToAddress",
      "outputs": [
        {
          "internalType": "address",
          "name": "",
          "type": "address"
        }
      ],
      "stateMutability": "view",
      "type": "function"
    },
    {
      "inputs": [],
      "name": "decimals",
      "outputs": [
        {
          "internalType": "uint8",
          "name": "",
          "type": "uint8"
        }
      ],
      "stateMutability": "view",
      "type": "function"
    },
    {
      "inputs": [],
      "name": "getAddressesAndBalances",
      "outputs": [
        {
          "internalType": "string[]",
          "name": "",
          "type": "string[]"
        },
        {
          "internalType": "address[]",
          "name": "",
          "type": "address[]"
        },
        {
          "internalType": "uint256[]",
          "name": "",
          "type": "uint256[]"
        }
      ],
      "stateMutability": "view",
      "type": "function"
    },
    {
      "inputs": [
        {
          "internalType": "string",
          "name": "codinome",
          "type": "string"
        },
        {
          "internalType": "uint256",
          "name": "quantidade",
          "type": "uint256"
        }
      ],
      "name": "issueToken",
      "outputs": [],
      "stateMutability": "nonpayable",
      "type": "function"
    },
    {
      "inputs": [],
      "name": "name",
      "outputs": [
        {
          "internalType": "string",
          "name": "",
          "type": "string"
        }
      ],
      "stateMutability": "view",
      "type": "function"
    },
    {
      "inputs": [],
      "name": "professor",
      "outputs": [
        {
          "internalType": "address",
          "name": "",
          "type": "address"
        }
      ],
      "stateMutability": "view",
      "type": "function"
    },
    {
      "inputs": [],
      "name": "symbol",
      "outputs": [
        {
          "internalType": "string",
          "name": "",
          "type": "string"
        }
      ],
      "stateMutability": "view",
      "type": "function"
    },
    {
      "inputs": [],
      "name": "totalSupply",
      "outputs": [
        {
          "internalType": "uint256",
          "name": "",
          "type": "uint256"
        }
      ],
      "stateMutability": "view",
      "type": "function"
    },
    {
      "inputs": [
        {
          "internalType": "address",
          "name": "to",
          "type": "address"
        },
        {
          "internalType": "uint256",
          "name": "value",
          "type": "uint256"
        }
      ],
      "name": "transfer",
      "outputs": [
        {
          "internalType": "bool",
          "name": "",
          "type": "bool"
        }
      ],
      "stateMutability": "nonpayable",
      "type": "function"
    },
    {
      "inputs": [
        {
          "internalType": "address",
          "name": "from",
          "type": "address"
        },
        {
          "internalType": "address",
          "name": "to",
          "type": "address"
        },
        {
          "internalType": "uint256",
          "name": "value",
          "type": "uint256"
        }
      ],
      "name": "transferFrom",
      "outputs": [
        {
          "internalType": "bool",
          "name": "",
          "type": "bool"
        }
      ],
      "stateMutability": "nonpayable",
      "type": "function"
    },
    {
      "inputs": [
        {
          "internalType": "string",
          "name": "codinome",
          "type": "string"
        },
        {
          "internalType": "uint256",
          "name": "quantidade",
          "type": "uint256"
        }
      ],
      "name": "vote",
      "outputs": [],
      "stateMutability": "nonpayable",
      "type": "function"
    },
    {
      "inputs": [],
      "name": "votingOff",
      "outputs": [],
      "stateMutability": "nonpayable",
      "type": "function"
    },
    {
      "inputs": [],
      "name": "votingOn",
      "outputs": [],
      "stateMutability": "nonpayable",
      "type": "function"
    }
  ],
  "bytecode": "0x608060405234801561001057600080fd5b506040518060400160405280600c81526020017f547572696e6720546f6b656e00000000000000000000000000000000000000008152506040518060400160405280600381526020017f5455520000000000000000000000000000000000000000000000000000000000815250816003908161008c9190610f1b565b50806004908161009c9190610f1b565b5050507370997970c51812dc3a010c7d01b50e0d17dc79c8600660006101000a81548173ffffffffffffffffffffffffffffffffffffffff021916908373ffffffffffffffffffffffffffffffffffffffff16021790555033600560006101000a81548173ffffffffffffffffffffffffffffffffffffffff021916908373ffffffffffffffffffffffffffffffffffffffff1602179055506001600660146101000a81548160ff0219169083151502179055506040518061024001604052806040518060400160405280600581526020017f6e6f6d653100000000000000000000000000000000000000000000000000000081525081526020016040518060400160405280600581526020017f6e6f6d653200000000000000000000000000000000000000000000000000000081525081526020016040518060400160405280600581526020017f6e6f6d653300000000000000000000000000000000000000000000000000000081525081526020016040518060400160405280600581526020017f6e6f6d653400000000000000000000000000000000000000000000000000000081525081526020016040518060400160405280600581526020017f6e6f6d653500000000000000000000000000000000000000000000000000000081525081526020016040518060400160405280600581526020017f6e6f6d653600000000000000000000000000000000000000000000000000000081525081526020016040518060400160405280600581526020017f6e6f6d653700000000000000000000000000000000000000000000000000000081525081526020016040518060400160405280600581526020017f6e6f6d653800000000000000000000000000000000000000000000000000000081525081526020016040518060400160405280600581526020017f6e6f6d653900000000000000000000000000000000000000000000000000000081525081526020016040518060400160405280600681526020017f6e6f6d653130000000000000000000000000000000000000000000000000000081525081526020016040518060400160405280600681526020017f6e6f6d653131000000000000000000000000000000000000000000000000000081525081526020016040518060400160405280600681526020017f6e6f6d653132000000000000000000000000000000000000000000000000000081525081526020016040518060400160405280600681526020017f6e6f6d653133000000000000000000000000000000000000000000000000000081525081526020016040518060400160405280600681526020017f6e6f6d653134000000000000000000000000000000000000000000000000000081525081526020016040518060400160405280600681526020017f6e6f6d653135000000000000000000000000000000000000000000000000000081525081526020016040518060400160405280600681526020017f6e6f6d653136000000000000000000000000000000000000000000000000000081525081526020016040518060400160405280600681526020017f6e6f6d653137000000000000000000000000000000000000000000000000000081525081526020016040518060400160405280600681526020017f6e6f6d65313800000000000000000000000000000000000000000000000000008152508152506007906012610590929190610bfe565b506000604051806102400160405280733c44cdddb6a900fa2b585dd299e03d12fa4293bc73ffffffffffffffffffffffffffffffffffffffff1673ffffffffffffffffffffffffffffffffffffffff1681526020017390f79bf6eb2c4f870365e785982e1f101e93b90673ffffffffffffffffffffffffffffffffffffffff1673ffffffffffffffffffffffffffffffffffffffff1681526020017315d34aaf54267db7d7c367839aaf71a00a2c6a6573ffffffffffffffffffffffffffffffffffffffff1673ffffffffffffffffffffffffffffffffffffffff168152602001739965507d1a55bcc2695c58ba16fb37d819b0a4dc73ffffffffffffffffffffffffffffffffffffffff1673ffffffffffffffffffffffffffffffffffffffff16815260200173976ea74026e726554db657fa54763abd0c3a0aa973ffffffffffffffffffffffffffffffffffffffff1673ffffffffffffffffffffffffffffffffffffffff1681526020017314dc79964da2c08b23698b3d3cc7ca32193d995573ffffffffffffffffffffffffffffffffffffffff1673ffffffffffffffffffffffffffffffffffffffff1681526020017323618e81e3f5cdf7f54c3d65f7fbc0abf5b21e8f73ffffffffffffffffffffffffffffffffffffffff1673ffffffffffffffffffffffffffffffffffffffff16815260200173a0ee7a142d267c1f36714e4a8f75612f20a7972073ffffffffffffffffffffffffffffffffffffffff1673ffffffffffffffffffffffffffffffffffffffff16815260200173bcd4042de499d14e55001ccbb24a551f3b95409673ffffffffffffffffffffffffffffffffffffffff1673ffffffffffffffffffffffffffffffffffffffff1681526020017371be63f3384f5fb98995898a86b02fb2426c578873ffffffffffffffffffffffffffffffffffffffff1673ffffffffffffffffffffffffffffffffffffffff16815260200173fabb0ac9d68b0b445fb7357272ff202c5651694a73ffffffffffffffffffffffffffffffffffffffff1673ffffffffffffffffffffffffffffffffffffffff168152602001731cbd3b2770909d4e10f157cabc84c7264073c9ec73ffffffffffffffffffffffffffffffffffffffff1673ffffffffffffffffffffffffffffffffffffffff16815260200173df3e18d64bc6a983f673ab319ccae4f1a57c709773ffffffffffffffffffffffffffffffffffffffff1673ffffffffffffffffffffffffffffffffffffffff16815260200173cd3b766ccdd6ae721141f452c550ca635964ce7173ffffffffffffffffffffffffffffffffffffffff1673ffffffffffffffffffffffffffffffffffffffff168152602001732546bcd3c84621e976d8185a91a922ae77ecec3073ffffffffffffffffffffffffffffffffffffffff1673ffffffffffffffffffffffffffffffffffffffff16815260200173bda5747bfd65f08deb54cb465eb87d40e51b197e73ffffffffffffffffffffffffffffffffffffffff1673ffffffffffffffffffffffffffffffffffffffff16815260200173dd2fd4581271e230360230f9337d5c0430bf44c073ffffffffffffffffffffffffffffffffffffffff1673ffffffffffffffffffffffffffffffffffffffff168152602001738626f6940e2eb28930efb4cef49b2d1f2c9c119973ffffffffffffffffffffffffffffffffffffffff1673ffffffffffffffffffffffffffffffffffffffff16815250905060005b6012811015610bf757600160196000848460128110610ab057610aaf610fed565b5b602002015173ffffffffffffffffffffffffffffffffffffffff1673ffffffffffffffffffffffffffffffffffffffff16815260200190815260200160002060006101000a81548160ff021916908315150217905550818160128110610b1957610b18610fed565b5b6020020151601a60078360128110610b3457610b33610fed565b5b01604051610b4291906110aa565b908152602001604051809103902060006101000a81548173ffffffffffffffffffffffffffffffffffffffff021916908373ffffffffffffffffffffffffffffffffffffffff1602179055506000601b6000848460128110610ba757610ba6610fed565b5b602002015173ffffffffffffffffffffffffffffffffffffffff1673ffffffffffffffffffffffffffffffffffffffff168152602001908152602001600020819055508080600101915050610a8e565b50506110c1565b8260128101928215610c39579160200282015b82811115610c38578251829081610c289190610f1b565b5091602001919060010190610c11565b5b509050610c469190610c4a565b5090565b5b80821115610c6a5760008181610c619190610c6e565b50600101610c4b565b5090565b508054610c7a90610d34565b6000825580601f10610c8c5750610cab565b601f016020900490600052602060002090810190610caa9190610cae565b5b50565b5b80821115610cc7576000816000905550600101610caf565b5090565b600081519050919050565b7f4e487b7100000000000000000000000000000000000000000000000000000000600052604160045260246000fd5b7f4e487b7100000000000000000000000000000000000000000000000000000000600052602260045260246000fd5b60006002820490506001821680610d4c57607f821691505b602082108103610d5f57610d5e610d05565b5b50919050565b60008190508160005260206000209050919050565b60006020601f8301049050919050565b600082821b905092915050565b600060088302610dc77fffffffffffffffffffffffffffffffffffffffffffffffffffffffffffffffff82610d8a565b610dd18683610d8a565b95508019841693508086168417925050509392505050565b6000819050919050565b6000819050919050565b6000610e18610e13610e0e84610de9565b610df3565b610de9565b9050919050565b6000819050919050565b610e3283610dfd565b610e46610e3e82610e1f565b848454610d97565b825550505050565b600090565b610e5b610e4e565b610e66818484610e29565b505050565b5b81811015610e8a57610e7f600082610e53565b600181019050610e6c565b5050565b601f821115610ecf57610ea081610d65565b610ea984610d7a565b81016020851015610eb8578190505b610ecc610ec485610d7a565b830182610e6b565b50505b505050565b600082821c905092915050565b6000610ef260001984600802610ed4565b1980831691505092915050565b6000610f0b8383610ee1565b9150826002028217905092915050565b610f2482610ccb565b67ffffffffffffffff811115610f3d57610f3c610cd6565b5b610f478254610d34565b610f52828285610e8e565b600060209050601f831160018114610f855760008415610f73578287015190505b610f7d8582610eff565b865550610fe5565b601f198416610f9386610d65565b60005b82811015610fbb57848901518255600182019150602085019450602081019050610f96565b86831015610fd85784890151610fd4601f891682610ee1565b8355505b6001600288020188555050505b505050505050565b7f4e487b7100000000000000000000000000000000000000000000000000000000600052603260045260246000fd5b600081905092915050565b6000815461103481610d34565b61103e818661101c565b94506001821660008114611059576001811461106e576110a1565b60ff19831686528115158202860193506110a1565b61107785610d65565b60005b838110156110995781548189015260018201915060208101905061107a565b838801955050505b50505092915050565b60006110b68284611027565b915081905092915050565b612743806110d06000396000f3fe608060405234801561001057600080fd5b50600436106101005760003560e01c806360a3ae0611610097578063a9059cbb11610066578063a9059cbb1461028b578063b7742245146102bb578063c683e0f4146102db578063dd62ed3e146102f757610100565b806360a3ae061461021757806370a082311461022157806395d89b4114610251578063a63858031461026f57610100565b806323b872dd116100d357806323b872dd1461017b578063313ce567146101ab57806344cb285e146101c95780635113940d146101f957610100565b806306fdde0314610105578063095ea7b31461012357806318160ddd1461015357806320949bb414610171575b600080fd5b61010d610327565b60405161011a91906118d7565b60405180910390f35b61013d600480360381019061013891906119a1565b6103b9565b60405161014a91906119fc565b60405180910390f35b61015b6103dc565b6040516101689190611a26565b60405180910390f35b6101796103e6565b005b61019560048036038101906101909190611a41565b6104eb565b6040516101a291906119fc565b60405180910390f35b6101b361051a565b6040516101c09190611ab0565b60405180910390f35b6101e360048036038101906101de9190611c00565b610523565b6040516101f09190611c58565b60405180910390f35b61020161056c565b60405161020e9190611c58565b60405180910390f35b61021f610592565b005b61023b60048036038101906102369190611c73565b610697565b6040516102489190611a26565b60405180910390f35b6102596106df565b60405161026691906118d7565b60405180910390f35b61028960048036038101906102849190611ca0565b610771565b005b6102a560048036038101906102a091906119a1565b610cd3565b6040516102b291906119fc565b60405180910390f35b6102c3610cf6565b6040516102d293929190611f84565b60405180910390f35b6102f560048036038101906102f09190611ca0565b610fa2565b005b610311600480360381019061030c9190611fd0565b61119f565b60405161031e9190611a26565b60405180910390f35b6060600380546103369061203f565b80601f01602080910402602001604051908101604052809291908181526020018280546103629061203f565b80156103af5780601f10610384576101008083540402835291602001916103af565b820191906000526020600020905b81548152906001019060200180831161039257829003601f168201915b5050505050905090565b6000806103c4611226565b90506103d181858561122e565b600191505092915050565b6000600254905090565b600560009054906101000a900473ffffffffffffffffffffffffffffffffffffffff1673ffffffffffffffffffffffffffffffffffffffff163373ffffffffffffffffffffffffffffffffffffffff16148061048f5750600660009054906101000a900473ffffffffffffffffffffffffffffffffffffffff1673ffffffffffffffffffffffffffffffffffffffff163373ffffffffffffffffffffffffffffffffffffffff16145b6104ce576040517f08c379a00000000000000000000000000000000000000000000000000000000081526004016104c5906120e2565b60405180910390fd5b6001600660146101000a81548160ff021916908315150217905550565b6000806104f6611226565b9050610503858285611240565b61050e8585856112d5565b60019150509392505050565b60006012905090565b601a818051602081018201805184825260208301602085012081835280955050505050506000915054906101000a900473ffffffffffffffffffffffffffffffffffffffff1681565b600660009054906101000a900473ffffffffffffffffffffffffffffffffffffffff1681565b600560009054906101000a900473ffffffffffffffffffffffffffffffffffffffff1673ffffffffffffffffffffffffffffffffffffffff163373ffffffffffffffffffffffffffffffffffffffff16148061063b5750600660009054906101000a900473ffffffffffffffffffffffffffffffffffffffff1673ffffffffffffffffffffffffffffffffffffffff163373ffffffffffffffffffffffffffffffffffffffff16145b61067a576040517f08c379a0000000000000000000000000000000000000000000000000000000008152600401610671906120e2565b60405180910390fd5b6000600660146101000a81548160ff021916908315150217905550565b60008060008373ffffffffffffffffffffffffffffffffffffffff1673ffffffffffffffffffffffffffffffffffffffff168152602001908152602001600020549050919050565b6060600480546106ee9061203f565b80601f016020809104026020016040519081016040528092919081815260200182805461071a9061203f565b80156107675780601f1061073c57610100808354040283529160200191610767565b820191906000526020600020905b81548152906001019060200180831161074a57829003601f168201915b5050505050905090565b60011515601960003373ffffffffffffffffffffffffffffffffffffffff1673ffffffffffffffffffffffffffffffffffffffff16815260200190815260200160002060009054906101000a900460ff161515148061081d5750600560009054906101000a900473ffffffffffffffffffffffffffffffffffffffff1673ffffffffffffffffffffffffffffffffffffffff163373ffffffffffffffffffffffffffffffffffffffff16145b61085c576040517f08c379a00000000000000000000000000000000000000000000000000000000081526004016108539061214e565b60405180910390fd5b600660149054906101000a900460ff166108ab576040517f08c379a00000000000000000000000000000000000000000000000000000000081526004016108a2906121ba565b60405180910390fd5b6002601b60003373ffffffffffffffffffffffffffffffffffffffff1673ffffffffffffffffffffffffffffffffffffffff168152602001908152602001600020541061092d576040517f08c379a000000000000000000000000000000000000000000000000000000000815260040161092490612226565b60405180910390fd5b6000601a8360405161093f9190612282565b908152602001604051809103902060009054906101000a900473ffffffffffffffffffffffffffffffffffffffff169050600073ffffffffffffffffffffffffffffffffffffffff168173ffffffffffffffffffffffffffffffffffffffff16036109df576040517f08c379a00000000000000000000000000000000000000000000000000000000081526004016109d6906122e5565b60405180910390fd5b3373ffffffffffffffffffffffffffffffffffffffff168173ffffffffffffffffffffffffffffffffffffffff1603610a4d576040517f08c379a0000000000000000000000000000000000000000000000000000000008152600401610a4490612351565b60405180910390fd5b601c60003373ffffffffffffffffffffffffffffffffffffffff1673ffffffffffffffffffffffffffffffffffffffff16815260200190815260200160002060008273ffffffffffffffffffffffffffffffffffffffff1673ffffffffffffffffffffffffffffffffffffffff16815260200190815260200160002060009054906101000a900460ff1615610b17576040517f08c379a0000000000000000000000000000000000000000000000000000000008152600401610b0e906123bd565b60405180910390fd5b6000670de0b6b3a764000083610b2d919061240c565b9050670de0b6b3a76400006002610b44919061240c565b811115610b86576040517f08c379a0000000000000000000000000000000000000000000000000000000008152600401610b7d9061249a565b60405180910390fd5b610b9082826113c9565b610ba633600583610ba191906124e9565b6113c9565b6001601b60003373ffffffffffffffffffffffffffffffffffffffff1673ffffffffffffffffffffffffffffffffffffffff1681526020019081526020016000206000828254610bf6919061251a565b925050819055506001601c60003373ffffffffffffffffffffffffffffffffffffffff1673ffffffffffffffffffffffffffffffffffffffff16815260200190815260200160002060008473ffffffffffffffffffffffffffffffffffffffff1673ffffffffffffffffffffffffffffffffffffffff16815260200190815260200160002060006101000a81548160ff0219169083151502179055507f1fb22019789732eae1f9274664ab21c768f1e37e3782d8f5b620d139aac293b4828583604051610cc59392919061254e565b60405180910390a150505050565b600080610cde611226565b9050610ceb8185856112d5565b600191505092915050565b606080606060006012905060008167ffffffffffffffff811115610d1d57610d1c611ad5565b5b604051908082528060200260200182016040528015610d4b5781602001602082028036833780820191505090505b50905060008267ffffffffffffffff811115610d6a57610d69611ad5565b5b604051908082528060200260200182016040528015610d985781602001602082028036833780820191505090505b50905060008367ffffffffffffffff811115610db757610db6611ad5565b5b604051908082528060200260200182016040528015610dea57816020015b6060815260200190600190039081610dd55790505b50905060005b84811015610f8f576000601a60078360128110610e1057610e0f61258c565b5b01604051610e1e9190612653565b908152602001604051809103902060009054906101000a900473ffffffffffffffffffffffffffffffffffffffff16905080858381518110610e6357610e6261258c565b5b602002602001019073ffffffffffffffffffffffffffffffffffffffff16908173ffffffffffffffffffffffffffffffffffffffff1681525050610ea681610697565b848381518110610eb957610eb861258c565b5b60200260200101818152505060078260128110610ed957610ed861258c565b5b018054610ee59061203f565b80601f0160208091040260200160405190810160405280929190818152602001828054610f119061203f565b8015610f5e5780601f10610f3357610100808354040283529160200191610f5e565b820191906000526020600020905b815481529060010190602001808311610f4157829003601f168201915b5050505050838381518110610f7657610f7561258c565b5b6020026020010181905250508080600101915050610df0565b5080838396509650965050505050909192565b600560009054906101000a900473ffffffffffffffffffffffffffffffffffffffff1673ffffffffffffffffffffffffffffffffffffffff163373ffffffffffffffffffffffffffffffffffffffff16148061104b5750600660009054906101000a900473ffffffffffffffffffffffffffffffffffffffff1673ffffffffffffffffffffffffffffffffffffffff163373ffffffffffffffffffffffffffffffffffffffff16145b61108a576040517f08c379a0000000000000000000000000000000000000000000000000000000008152600401611081906120e2565b60405180910390fd5b6000601a8360405161109c9190612282565b908152602001604051809103902060009054906101000a900473ffffffffffffffffffffffffffffffffffffffff169050600073ffffffffffffffffffffffffffffffffffffffff168173ffffffffffffffffffffffffffffffffffffffff160361113c576040517f08c379a0000000000000000000000000000000000000000000000000000000008152600401611133906126b6565b60405180910390fd5b6000670de0b6b3a764000083611152919061240c565b905061115e82826113c9565b7f1fb22019789732eae1f9274664ab21c768f1e37e3782d8f5b620d139aac293b48285836040516111919392919061254e565b60405180910390a150505050565b6000600160008473ffffffffffffffffffffffffffffffffffffffff1673ffffffffffffffffffffffffffffffffffffffff16815260200190815260200160002060008373ffffffffffffffffffffffffffffffffffffffff1673ffffffffffffffffffffffffffffffffffffffff16815260200190815260200160002054905092915050565b600033905090565b61123b838383600161144b565b505050565b600061124c848461119f565b90507fffffffffffffffffffffffffffffffffffffffffffffffffffffffffffffffff8110156112cf57818110156112bf578281836040517ffb8f41b20000000000000000000000000000000000000000000000000000000081526004016112b6939291906126d6565b60405180910390fd5b6112ce8484848403600061144b565b5b50505050565b600073ffffffffffffffffffffffffffffffffffffffff168373ffffffffffffffffffffffffffffffffffffffff16036113475760006040517f96c6fd1e00000000000000000000000000000000000000000000000000000000815260040161133e9190611c58565b60405180910390fd5b600073ffffffffffffffffffffffffffffffffffffffff168273ffffffffffffffffffffffffffffffffffffffff16036113b95760006040517fec442f050000000000000000000000000000000000000000000000000000000081526004016113b09190611c58565b60405180910390fd5b6113c4838383611622565b505050565b600073ffffffffffffffffffffffffffffffffffffffff168273ffffffffffffffffffffffffffffffffffffffff160361143b5760006040517fec442f050000000000000000000000000000000000000000000000000000000081526004016114329190611c58565b60405180910390fd5b61144760008383611622565b5050565b600073ffffffffffffffffffffffffffffffffffffffff168473ffffffffffffffffffffffffffffffffffffffff16036114bd5760006040517fe602df050000000000000000000000000000000000000000000000000000000081526004016114b49190611c58565b60405180910390fd5b600073ffffffffffffffffffffffffffffffffffffffff168373ffffffffffffffffffffffffffffffffffffffff160361152f5760006040517f94280d620000000000000000000000000000000000000000000000000000000081526004016115269190611c58565b60405180910390fd5b81600160008673ffffffffffffffffffffffffffffffffffffffff1673ffffffffffffffffffffffffffffffffffffffff16815260200190815260200160002060008573ffffffffffffffffffffffffffffffffffffffff1673ffffffffffffffffffffffffffffffffffffffff16815260200190815260200160002081905550801561161c578273ffffffffffffffffffffffffffffffffffffffff168473ffffffffffffffffffffffffffffffffffffffff167f8c5be1e5ebec7d5bd14f71427d1e84f3dd0314c0f7b2291e5b200ac8c7c3b925846040516116139190611a26565b60405180910390a35b50505050565b600073ffffffffffffffffffffffffffffffffffffffff168373ffffffffffffffffffffffffffffffffffffffff1603611674578060026000828254611668919061251a565b92505081905550611747565b60008060008573ffffffffffffffffffffffffffffffffffffffff1673ffffffffffffffffffffffffffffffffffffffff16815260200190815260200160002054905081811015611700578381836040517fe450d38c0000000000000000000000000000000000000000000000000000000081526004016116f7939291906126d6565b60405180910390fd5b8181036000808673ffffffffffffffffffffffffffffffffffffffff1673ffffffffffffffffffffffffffffffffffffffff16815260200190815260200160002081905550505b600073ffffffffffffffffffffffffffffffffffffffff168273ffffffffffffffffffffffffffffffffffffffff160361179057806002600082825403925050819055506117dd565b806000808473ffffffffffffffffffffffffffffffffffffffff1673ffffffffffffffffffffffffffffffffffffffff168152602001908152602001600020600082825401925050819055505b8173ffffffffffffffffffffffffffffffffffffffff168373ffffffffffffffffffffffffffffffffffffffff167fddf252ad1be2c89b69c2b068fc378daa952ba7f163c4a11628f55a4df523b3ef8360405161183a9190611a26565b60405180910390a3505050565b600081519050919050565b600082825260208201905092915050565b60005b83811015611881578082015181840152602081019050611866565b60008484015250505050565b6000601f19601f8301169050919050565b60006118a982611847565b6118b38185611852565b93506118c3818560208601611863565b6118cc8161188d565b840191505092915050565b600060208201905081810360008301526118f1818461189e565b905092915050565b6000604051905090565b600080fd5b600080fd5b600073ffffffffffffffffffffffffffffffffffffffff82169050919050565b60006119388261190d565b9050919050565b6119488161192d565b811461195357600080fd5b50565b6000813590506119658161193f565b92915050565b6000819050919050565b61197e8161196b565b811461198957600080fd5b50565b60008135905061199b81611975565b92915050565b600080604083850312156119b8576119b7611903565b5b60006119c685828601611956565b92505060206119d78582860161198c565b9150509250929050565b60008115159050919050565b6119f6816119e1565b82525050565b6000602082019050611a1160008301846119ed565b92915050565b611a208161196b565b82525050565b6000602082019050611a3b6000830184611a17565b92915050565b600080600060608486031215611a5a57611a59611903565b5b6000611a6886828701611956565b9350506020611a7986828701611956565b9250506040611a8a8682870161198c565b9150509250925092565b600060ff82169050919050565b611aaa81611a94565b82525050565b6000602082019050611ac56000830184611aa1565b92915050565b600080fd5b600080fd5b7f4e487b7100000000000000000000000000000000000000000000000000000000600052604160045260246000fd5b611b0d8261188d565b810181811067ffffffffffffffff82111715611b2c57611b2b611ad5565b5b80604052505050565b6000611b3f6118f9565b9050611b4b8282611b04565b919050565b600067ffffffffffffffff821115611b6b57611b6a611ad5565b5b611b748261188d565b9050602081019050919050565b82818337600083830152505050565b6000611ba3611b9e84611b50565b611b35565b905082815260208101848484011115611bbf57611bbe611ad0565b5b611bca848285611b81565b509392505050565b600082601f830112611be757611be6611acb565b5b8135611bf7848260208601611b90565b91505092915050565b600060208284031215611c1657611c15611903565b5b600082013567ffffffffffffffff811115611c3457611c33611908565b5b611c4084828501611bd2565b91505092915050565b611c528161192d565b82525050565b6000602082019050611c6d6000830184611c49565b92915050565b600060208284031215611c8957611c88611903565b5b6000611c9784828501611956565b91505092915050565b60008060408385031215611cb757611cb6611903565b5b600083013567ffffffffffffffff811115611cd557611cd4611908565b5b611ce185828601611bd2565b9250506020611cf28582860161198c565b9150509250929050565b600081519050919050565b600082825260208201905092915050565b6000819050602082019050919050565b600082825260208201905092915050565b6000611d4482611847565b611d4e8185611d28565b9350611d5e818560208601611863565b611d678161188d565b840191505092915050565b6000611d7e8383611d39565b905092915050565b6000602082019050919050565b6000611d9e82611cfc565b611da88185611d07565b935083602082028501611dba85611d18565b8060005b85811015611df65784840389528151611dd78582611d72565b9450611de283611d86565b925060208a01995050600181019050611dbe565b50829750879550505050505092915050565b600081519050919050565b600082825260208201905092915050565b6000819050602082019050919050565b611e3d8161192d565b82525050565b6000611e4f8383611e34565b60208301905092915050565b6000602082019050919050565b6000611e7382611e08565b611e7d8185611e13565b9350611e8883611e24565b8060005b83811015611eb9578151611ea08882611e43565b9750611eab83611e5b565b925050600181019050611e8c565b5085935050505092915050565b600081519050919050565b600082825260208201905092915050565b6000819050602082019050919050565b611efb8161196b565b82525050565b6000611f0d8383611ef2565b60208301905092915050565b6000602082019050919050565b6000611f3182611ec6565b611f3b8185611ed1565b9350611f4683611ee2565b8060005b83811015611f77578151611f5e8882611f01565b9750611f6983611f19565b925050600181019050611f4a565b5085935050505092915050565b60006060820190508181036000830152611f9e8186611d93565b90508181036020830152611fb28185611e68565b90508181036040830152611fc68184611f26565b9050949350505050565b60008060408385031215611fe757611fe6611903565b5b6000611ff585828601611956565b925050602061200685828601611956565b9150509250929050565b7f4e487b7100000000000000000000000000000000000000000000000000000000600052602260045260246000fd5b6000600282049050600182168061205757607f821691505b60208210810361206a57612069612010565b5b50919050565b7f4170656e6173206f206f776e6572206f7520612070726f666573736f7261207060008201527f6f64656d2065786563757461722065737461206163616f000000000000000000602082015250565b60006120cc603783611852565b91506120d782612070565b604082019050919050565b600060208201905081810360008301526120fb816120bf565b9050919050565b7f5573756172696f206e616f206175746f72697a61646f00000000000000000000600082015250565b6000612138601683611852565b915061214382612102565b602082019050919050565b600060208201905081810360008301526121678161212b565b9050919050565b7f4120766f746163616f2065737461206465736174697661646100000000000000600082015250565b60006121a4601983611852565b91506121af8261216e565b602082019050919050565b600060208201905081810360008301526121d381612197565b9050919050565b7f566f6365206a612075736f7520746f646f73206f73207365757320766f746f73600082015250565b6000612210602083611852565b915061221b826121da565b602082019050919050565b6000602082019050818103600083015261223f81612203565b9050919050565b600081905092915050565b600061225c82611847565b6122668185612246565b9350612276818560208601611863565b80840191505092915050565b600061228e8284612251565b915081905092915050565b7f5573756172696f206e616f2065682063616e64696461746f0000000000000000600082015250565b60006122cf601883611852565b91506122da82612299565b602082019050919050565b600060208201905081810360008301526122fe816122c2565b9050919050565b7f4e616f20706f646520766f74617220656d207369206d65736d6f000000000000600082015250565b600061233b601a83611852565b915061234682612305565b602082019050919050565b6000602082019050818103600083015261236a8161232e565b9050919050565b7f566f6365206a6120766f746f75206e65737365207573756172696f0000000000600082015250565b60006123a7601b83611852565b91506123b282612371565b602082019050919050565b600060208201905081810360008301526123d68161239a565b9050919050565b7f4e487b7100000000000000000000000000000000000000000000000000000000600052601160045260246000fd5b60006124178261196b565b91506124228361196b565b92508282026124308161196b565b91508282048414831517612447576124466123dd565b5b5092915050565b7f4d6178696d6f207065726d697469646f2065203220547572696e677300000000600082015250565b6000612484601c83611852565b915061248f8261244e565b602082019050919050565b600060208201905081810360008301526124b381612477565b9050919050565b7f4e487b7100000000000000000000000000000000000000000000000000000000600052601260045260246000fd5b60006124f48261196b565b91506124ff8361196b565b92508261250f5761250e6124ba565b5b828204905092915050565b60006125258261196b565b91506125308361196b565b9250828201905080821115612548576125476123dd565b5b92915050565b60006060820190506125636000830186611c49565b8181036020830152612575818561189e565b90506125846040830184611a17565b949350505050565b7f4e487b7100000000000000000000000000000000000000000000000000000000600052603260045260246000fd5b60008190508160005260206000209050919050565b600081546125dd8161203f565b6125e78186612246565b9450600182166000811461260257600181146126175761264a565b60ff198316865281151582028601935061264a565b612620856125bb565b60005b8381101561264257815481890152600182019150602081019050612623565b838801955050505b50505092915050565b600061265f82846125d0565b915081905092915050565b7f436f64696e6f6d6520696e76616c69646f000000000000000000000000000000600082015250565b60006126a0601183611852565b91506126ab8261266a565b602082019050919050565b600060208201905081810360008301526126cf81612693565b9050919050565b60006060820190506126eb6000830186611c49565b6126f86020830185611a17565b6127056040830184611a17565b94935050505056fea264697066735822122076e5db236dc8c5a194697ce96260c114dcd89773108d1a86913e1d0af4873ea364736f6c634300081c0033",
  "linkReferences": {},
  "deployedLinkReferences": {}
}